:020000040800F2
:10000000002800205D150008ED140008F314000816
:10001000F9140008FF14000805150008000000008E
:100020000000000000000000000000000B150008A8
:100030001715000800000000231500082F15000800
:10004000A5150008A5150008A5150008A5150008A8
:10005000A5150008A5150008A5150008A515000898
:10006000A5150008A5150008A5150008A515000888
:10007000A5150008A5150008A5150008A515000878
:10008000A5150008A5150008A5150008A515000868
:10009000A5150008A5150008A5150008A515000858
:1000A000A5150008A5150008A5150008A515000848
:1000B0003D150008A515000800000000A515000862
:1000C000A51500080000000000000000A5150008AC
:1000D00000000000A5150008A5150008000000009C
:1000E000A5150008A5150008A515000800000000CA
:1000F0000000000000000000000000000000000000
:0C01000000000000000000005FF808F1A3
:10010C0010B5054C237833B9044B13B10448AFF345
:10011C0000800123237010BD94000020000000001B
:10012C00D42B000808B5034B1BB103490348AFF3AC
:10013C00008008BD0000000098000020D42B0008AF
:10014C0080B500AF012201210E4801F028FD0122EB
:10015C0002210C4801F023FD01220421094801F081
:10016C001EFD01222021074801F019FD012210215A
:10017C00044801F014FD01220821024801F00FFD92
:10018C0000BF80BD0008014080B500AF1B4B1B6851
:10019C00013B042B2FD801A252F823F0BD0100081B
:1001AC00EB010008F1010008F7010008FD0100084F
:1001BC00FFF7C6FF124B1B681946002001F0D0F860
:1001CC000E4B02221A600F4B13221A600E4B1B6847
:1001DC000E4A12681146184600F050FD0CE000F073
:1001EC0023FE09E000F096FE06E000F0D7FE03E0E7
:1001FC0000F016FF00E000BF00BF80BDBC00002077
:10020C0058000020800000205C00002064000020CA
:10021C0080B483B000AF7860044A7B68012142F857
:10022C00231000BF0C37BD4680BC7047B0000020C7
:10023C0080B400AF064B00221A60054B00225A60B6
:10024C00034B00229A6000BFBD4680BC704700BFC4
:10025C00B000002080B582B000AF00237B6012E0BC
:10026C00454A7B6852F8232044497B6841F8232097
:10027C00434A7B6852F823203F497B6841F823208E
:10028C007B6801337B607B68022BE9DD3D4B1B688F
:10029C003D4A12881146184601F06AFC03461A467C
:1002AC00374B1A60374B5B68374A528811461846F1
:1002BC0001F05EFC03461A46314B5A60314B9B6889
:1002CC00314A92881146184601F052FC03461A46F0
:1002DC002B4B9A6000233B6046E0284A3B6852F85F
:1002EC00232025493B6851F823309A4239D1224AC0
:1002FC003B6852F8232022493B6851F823309A423C
:10030C002FD1224A3B6852F823201D493B6851F8F3
:10031C0023309A4211D01A4A3B6852F823201B49C9
:10032C003B6841F82320164A3B6852F82330002BD7
:10033C0017D13868FFF76CFF13E0154A3B6852F889
:10034C0023305A1E12493B6841F82320104A3B685F
:10035C0052F82330002B04D10C4A3B68012142F89F
:10036C0023103B6801333B603B68022BB5DD00BFBB
:10037C0000BF0837BD4680BD0C00002000000020E7
:10038C00180000203C000020480000202400002021
:10039C003000002080B500AF01F000F900F020F82B
:1003AC0000F0A6F800F058F80B4802F055F80B4B8B
:1003BC0001221A60FA21022000F0D2FF4FF47A7168
:1003CC00042000F0CDFFFFF7DFFE00F01FF900F076
:1003DC0039F900F0FBFBF6E7D4000020BC0000204C
:1003EC0080B590B000AF07F1180328220021184601
:1003FC0002F0E2FB3B1D00221A605A609A60DA6040
:10040C001A610223BB610123BB621023FB62002330
:10041C007B6307F11803184601F0F2FB0346002B2F
:10042C0001D000F0EDF80F237B600023BB600023AC
:10043C00FB6000233B6100237B613B1D00211846C0
:10044C0001F05EFE0346002B01D000F0D9F800BF8E
:10045C004037BD4680BD000080B586B000AF07F1C7
:10046C00080300221A605A609A60DA603B46002248
:10047C001A605A601D4B4FF080421A601B4B41F6BC
:10048C003F725A60194B00229A60184B0922DA60AD
:10049C00164B00221A61154B00229A61134801F089
:1004AC008BFF0346002B01D000F0AAF84FF48053C9
:1004BC00BB6007F1080319460C4802F009F9034622
:1004CC00002B01D000F09CF800233B6000237B60E4
:1004DC003B461946054802F0E1FA0346002B01D0D1
:1004EC0000F08EF800BF1837BD4680BDD400002048
:1004FC0080B588B000AF07F1100300221A605A6073
:10050C009A60DA60344B9B69334A43F01003936171
:10051C00314B9B6903F01003FB60FB682E4B9B690E
:10052C002D4A43F0040393612B4B9B6903F00403A6
:10053C00BB60BB68284B9B69274A43F00803936157
:10054C00254B9B6903F008037B607B68002247F610
:10055C00BF71224801F023FB00220F21204801F03B
:10056C001EFB4FF4C0433B6100237B610123BB6145
:10057C0007F1100319461B4801F080F947F6BF73C9
:10058C003B6101237B610023BB610223FB6107F10B
:10059C0010031946114801F071F90F233B61012337
:1005AC007B610023BB610223FB6107F11003194639
:1005BC000B4801F063F94FF440633B6100237B610E
:1005CC000123BB6107F110031946054801F056F9E8
:1005DC0000BF2037BD4680BD00100240000801401E
:1005EC00000C01400010014080B582B000AF786073
:1005FC0000F0D6FEFFF72EFE00BF0837BD4680BDCB
:10060C0080B400AF72B600BFFEE7000080B500AF4B
:10061C000B4B1B680F2B09D00F2B0DDC0D2B02D0B5
:10062C000E2B06D008E000F09FFD06E000F000FE67
:10063C0003E000F04DFE00E000BF00BF80BD00BF36
:10064C00BC00002080B500AF0C4B1B68132B02D0F4
:10065C00142B03D00FE000F04FFB0CE0084B1B6891
:10066C00184600F07FFB00F01FFD064B1B68184678
:10067C0000F0B0FB00BF00BF80BD00BF80000020B9
:10068C007C000020D000002080B582B000AF7860E4
:10069C007B68092B00F2C88101A252F823F000BF3D
:1006AC00D50600082B07000881070008D7070008AB
:1006BC002D08000883080008D90800082F09000835
:1006CC0085090008DB09000800224FF48071D54829
:1006DC0001F065FA00224FF40071D24801F05FFA84
:1006EC0000224FF48061CF4801F059FA00224FF4F8
:1006FC000061CC4801F053FA00224FF48051C948F4
:10070C0001F04DFA00224FF40051C64801F047FAAF
:10071C0001224FF48041C34801F041FA87E10122E4
:10072C004FF48071BF4801F03AFA00224FF4007187
:10073C00BC4801F034FA00224FF48061B94801F052
:10074C002EFA01224FF40061B64801F028FA01227A
:10075C004FF48051B34801F022FA01224FF40051BA
:10076C00B04801F01CFA01224FF48041AD4801F071
:10077C0016FA5CE100224FF48071AA4801F00FFADE
:10078C0000224FF40071A74801F009FA01224FF43E
:10079C008061A44801F003FA00224FF40061A148E3
:1007AC0001F0FDF900224FF480519E4801F0F7F959
:1007BC0001224FF400519B4801F0F1F900224FF453
:1007CC008041984801F0EBF931E100224FF480713F
:1007DC00944801F0E4F900224FF40071914801F0C3
:1007EC00DEF900224FF480618E4801F0D8F9002226
:1007FC004FF400618B4801F0D2F901224FF4805183
:10080C00884801F0CCF901224FF40051854801F0E1
:10081C00C6F900224FF48041824801F0C0F906E18C
:10082C0001224FF480717F4801F0B9F900224FF496
:10083C0000717C4801F0B3F900224FF480617948D3
:10084C0001F0ADF901224FF40061764801F0A7F9EF
:10085C0001224FF48051734801F0A1F900224FF4AA
:10086C000051704801F09BF900224FF480416D4813
:10087C0001F095F9DBE000224FF48071694801F03A
:10088C008EF901224FF40071664801F088F90022BC
:10089C004FF48061634801F082F900224FF400614B
:1008AC00604801F07CF901224FF480515D4801F061
:1008BC0076F900224FF400515A4801F070F90022E9
:1008CC004FF48041574801F06AF9B0E000224FF430
:1008DC008071544801F063F901224FF400715148C2
:1008EC0001F05DF900224FF480614E4801F057F998
:1008FC0000224FF400614B4801F051F900224FF4F3
:10090C008051484801F04BF900224FF40051454802
:10091C0001F045F900224FF48041424801F03FF9C3
:10092C0085E000224FF480713E4801F038F9002236
:10093C004FF400713B4801F032F900224FF4806112
:10094C00384801F02CF901224FF40061354801F0D0
:10095C0026F901224FF48051324801F020F901228E
:10096C004FF400512F4801F01AF901224FF4804145
:10097C002C4801F014F95AE000224FF480712948F8
:10098C0001F00DF900224FF40071264801F007F92F
:10099C0000224FF48061234801F001F900224FF44A
:1009AC000061204801F0FBF800224FF480511D48F3
:1009BC0001F0F5F800224FF400511A4801F0EFF85D
:1009CC0000224FF48041174801F0E9F82FE0002293
:1009DC004FF48071134801F0E2F800224FF40071DB
:1009EC00104801F0DCF800224FF480610D4801F052
:1009FC00D6F800224FF400610A4801F0D0F8012229
:100A0C004FF48051074801F0CAF800224FF400510E
:100A1C00044801F0C4F800224FF48041014801F071
:100A2C00BEF804E00008014000237B6000BF00BF5B
:100A3C000837BD4680BD00BF80B500AF01224FF422
:100A4C008071144801F0ABF801224FF40071114889
:100A5C0001F0A5F801224FF480610E4801F09FF8D7
:100A6C0001224FF400610B4801F099F801224FF478
:100A7C008051084801F093F801224FF400510548C9
:100A8C0001F08DF801224FF48041024801F087F803
:100A9C0000BF80BD0008014080B400AF074B0022AE
:100AAC001A60064B00225A60044B00229A60034BDA
:100ABC000022DA6000BFBD4680BC7047C000002039
:100ACC0080B582B000AF78607B68013B032B73D894
:100ADC0001A252F823F000BFF50A0008290B000808
:100AEC005D0B0008910B0008364B1B681846FFF78E
:100AFC00CBFD00220121344801F051F801220221E2
:100B0C00314801F04CF8012204212F4801F047F83C
:100B1C00012208212C4801F042F84EE0294B5B6879
:100B2C001846FFF7B1FD01220121274801F037F8E3
:100B3C0000220221244801F032F80122042122482B
:100B4C0001F02DF8012208211F4801F028F834E0AB
:100B5C001C4B9B681846FFF797FD012201211A4890
:100B6C0001F01DF801220221174801F018F80022AB
:100B7C000421154801F013F801220821124801F054
:100B8C000EF81AE00F4BDB681846FFF77DFD0122CB
:100B9C0001210D4801F003F8012202210A4800F05E
:100BAC00FEFF01220421084800F0F9FF0022082171
:100BBC00054800F0F4FF00E000BF00BF0837BD4659
:100BCC0080BD00BFC0000020000C014080B500AF0C
:100BDC00022000F015FC0346012B18D1FFF72CFF67
:100BEC000C4B1B681846FFF76BFF0A4B1B68013355
:100BFC00084A1360084B1B681946022000F0B0FB32
:100C0C00044B1B68042B02DD024B00221A6000BF50
:100C1C0080BD00BF840000207800002080B500AFAC
:100C2C00104B9B68012B1AD10E4B00229A60FFF7D8
:100C3C0087FAFFF701FF0C4B02221A600B4B1B6863
:100C4C001946002000F08CFB094B1B68094A1268FE
:100C5C001146184600F012F8074B13221A6000BF19
:100C6C0080BD00BFB0000020BC0000205800002058
:100C7C005C000020640000208000002080B582B061
:100C8C0000AF78603960FFF707FF7B68184A82FB7A
:100C9C0003129210DB17D31A164A13607968144B9F
:100CAC0083FB01239A10CB17D21A13469B001344D3
:100CBC005B00CA1A0F4B5A603B680D4A82FB031249
:100CCC009210DB17D31A0B4A93603968084B83FBDD
:100CDC0001239A10CB17D21A13469B0013445B00C6
:100CEC00CA1A044BDA6000BF0837BD4680BD00BF8E
:100CFC0067666666C000002080B500AF042000F077
:100D0C007FFB0346012B28D1154B1B68002B04D00D
:100D1C00134B1B68013B124A1360114B5B68002B91
:100D2C0004D00F4B5B68013B0D4A53600C4B9B6826
:100D3C00002B04D00A4B9B68013B094A9360084B7B
:100D4C00DB68002B04D0064BDB68013B044AD36004
:100D5C004FF47A71042000F003FB00BF80BD00BF8C
:100D6C00C000002080B483B000AF7860164A7B6866
:100D7C001360164B00221A60144B00225A60134B5E
:100D8C0000229A60114B0022DA600F4B1B68104A4C
:100D9C0082FB03129210DB17D31A0C4A13600A4B16
:100DAC0019680B4B83FB01239A10CB17D21A1346ED
:100DBC009B0013445B00CA1A044B5A6000BF0C37EB
:100DCC00BD4680BC704700BF7C000020C0000020E6
:100DDC006766666680B483B000AF7860104B002203
:100DEC009A600F4B0022DA607B680E4A82FB03127A
:100DFC009210DB17D31A0A4A93607968094B83FB6C
:100E0C0001239A10CB17D21A13469B0013445B0094
:100E1C00CA1A034BDA6000BF0C37BD4680BC704762
:100E2C00C00000206766666680B500AF0022012115
:100E3C002F4800F0B4FE012202212D4800F0AFFE35
:100E4C00012204212A4800F0AAFE00222021284871
:100E5C0000F0A5FE01221021254800F0A0FE012281
:100E6C000821234800F09BFE002000F0C9FA03463D
:100E7C00012B10D11F4B1B681946002000F070FA93
:100E8C001D4B03221A601D4B1B681C4A126811462D
:100E9C001846FFF7F3FE1A4B1B68012B25D1164B96
:100EAC000D221A60FFF74CF9164B1B6819460020EF
:100EBC0000F056FA144B1B681946012000F050FA4A
:100ECC00FFF7B6F900220121094800F068FE002264
:100EDC000821074800F063FE0C4B14221A60022014
:100EEC00FFF740FF0A4B00221A6000BF80BD00BF15
:100EFC000008014054000020BC00002060000020CD
:100F0C00B0000020680000206C0000208000002051
:100F1C00D000002080B500AF002201211A4800F05B
:100F2C003EFE01220221184800F039FE0122042164
:100F3C00154800F034FE01222021134800F02FFE4A
:100F4C0000221021104800F02AFE012208210E4830
:100F5C0000F025FE002000F053FA0346012B10D1BF
:100F6C000A4B1B681946002000F0FAF9084B0422C2
:100F7C001A60084B1B68084A126811461846FFF79E
:100F8C007DFE00BF80BD00BF00080140580000205E
:100F9C00BC000020640000205C00002080B500AF85
:100FAC00012201211A4800F0FAFD01220221184801
:100FBC0000F0F5FD00220421154800F0F0FD01229F
:100FCC002021134800F0EBFD01221021104800F005
:100FDC00E6FD002208210E4800F0E1FD002000F0A3
:100FEC000FFA0346012B10D10A4B1B68094A1268F1
:100FFC0011461846FFF742FE074B1B6819460020A6
:10100C0000F0AEF9054B05221A6000BF80BD00BF91
:10101C00000801406000002054000020BC000020AB
:10102C0080B500AF012201211A4800F0B8FD002262
:10103C000221184800F0B3FD01220421154800F0EC
:10104C00AEFD01222021134800F0A9FD0122102140
:10105C00104800F0A4FD002208210E4800F09FFD6E
:10106C00002000F0CDF90346012B10D10A4B1B6870
:10107C001946002000F074F9084B02221A60084B44
:10108C001B68084A126811461846FFF7F7FD00BFA7
:10109C0080BD00BF0008014058000020BC000020AB
:1010AC005C0000206400002080B500AF254B5B681D
:1010BC00012B44D1244B1B680133234A1360224B70
:1010CC001B68002B31D0214B1B680F2B13D00F2B1F
:1010DC002CDC0D2B02D00E2B1AD027E01A4B1B68E0
:1010EC004FF47A7202FB03F3194A1360164B1B6818
:1010FC00184A13601AE0144B1B684FF47A7202FB07
:10110C0003F3154A1360104B1B68144A13600DE06F
:10111C000D4B1B684FF47A7202FB03F3104A1360F9
:10112C00094B1B680F4A136000E000BFFFF780F803
:10113C00054B1B68632B02DD034B01221A6000BFB9
:10114C0080BD00BFB0000020D0000020BC000020FB
:10115C00500000205C0000205400002060000020A3
:10116C00580000206400002080B500AF012000F082
:10117C0047F90346012B0DD10121254800F027FD2D
:10118C000821234800F023FD224B1B68194601203F
:10119C0000F0E6F8204B1B68012B23D11E4B0022DC
:1011AC001A601E4B0F221A601D4B1B68194600203B
:1011BC0000F0D6F8FEF7C4FF1A4B1B681946012045
:1011CC0000F0CEF800220221114800F0E8FC0022C9
:1011DC0010210F4800F0E3FC0320FFF7C3FD124B76
:1011EC0000221A60002000F00BF90346012B0AD1F3
:1011FC000A4B02221A600D4B1B681946002000F0A6
:10120C00AFF8FEF79DFFFFF709FD00BF80BD00BFE3
:10121C00000801406C000020B0000020BC00002041
:10122C006800002070000020D00000205800002032
:10123C0080B500AF012000F0E3F80346012B0DD17F
:10124C0002211C4800F0C3FC10211A4800F0BFFC1E
:10125C00194B1B681946012000F082F8174B1B68CC
:10126C00012B23D1154B00221A60154B0E221A604C
:10127C00144B1B681946002000F072F8FEF760FF53
:10128C00114B1B681946012000F06AF8002204215A
:10129C00084800F084FC00222021064800F07FFC66
:1012AC000420FFF75FFD094B00221A60FFF7B6FC24
:1012BC0000BF80BD0008014070000020B00000207D
:1012CC00BC0000206800002074000020D00000202A
:1012DC0080B500AF012000F093F80346012B0DD12F
:1012EC000421174800F073FC2021154800F06FFC16
:1012FC00144B1B681946012000F032F8124B1B6886
:10130C00012B18D1104B00221A60104B02221A60CC
:10131C000F4B1B681946002000F022F8FEF710FF57
:10132C000C4B13221A600C4B1B680C4A12681146AA
:10133C001846FFF7A3FCFFF771FC00BF80BD00BF90
:10134C000008014074000020B0000020BC00002008
:10135C0058000020800000205C0000206400002069
:10136C0080B483B000AF786039603B68094A82FB77
:10137C0003129210DB17D21A07497B6841F823201D
:10138C00064A7B68002142F8231000BF0C37BD468B
:10139C0080BC704767666666440100201C01002013
:1013AC0080B483B000AF00237B601CE0124A7B68E2
:1013BC0052F82330002B08DD0F4A7B6852F823309B
:1013CC005A1E0D497B6841F823200B4A7B6852F862
:1013DC002330002B04DC094A7B68012142F82310DE
:1013EC007B6801337B607B68092BDFDD00BF00BFAE
:1013FC000C37BD4680BC7047440100201C01002006
:10140C0080B483B000AF7860094A7B6852F823300F
:10141C00012B06D1064A7B68002142F823100123D8
:10142C0000E0002318460C37BD4680BC704700BF57
:10143C001C01002080B485B000AF154B9B69144A89
:10144C0043F001039361124B9B6903F00103BB60F2
:10145C00BB680F4BDB690E4A43F08053D3610C4BD6
:10146C00DB6903F080537B607B680A4B5B68FB6035
:10147C00FB6823F0E063FB60FB6843F08063FB6078
:10148C00044AFB68536000BF1437BD4680BC7047EC
:10149C00001002400000014080B584B000AF7860BD
:1014AC007B681B68B3F1804F13D10C4BDB690B4A83
:1014BC0043F00103D361094BDB6903F00103FB60CB
:1014CC00FB68002200211C2000F0A1F91C2000F078
:1014DC00BAF900BF1037BD4680BD00BF00100240F6
:1014EC0080B400AFFEE780B400AFFEE780B400AF7D
:1014FC00FEE780B400AFFEE780B400AFFEE780B437
:10150C0000AF00BFBD4680BC704780B400AF00BFC9
:10151C00BD4680BC704780B400AF00BFBD4680BCE8
:10152C00704780B500AF00F07FF800BF80BD0000B1
:10153C0080B500AF024800F0DBFF00BF80BD00BFEC
:10154C00D400002080B400AF00BFBD4680BC704703
:10155C00FFF7F8FF0B480C490C4A002302E0D45863
:10156C00C4500433C4188C42F9D3094A094C0023E3
:10157C0001E013600432A242FBD301F0F9FAFEF74A
:10158C0009FF70470000002094000020182C000870
:10159C009400002070010020FEE7000080B500AF31
:1015AC00084B1B68074A43F010031360032000F03C
:1015BC0023F90F2000F008F8FFF73CFF0023184632
:1015CC0080BD00BF0020024080B582B000AF7860C3
:1015DC00124B1A68124B1B7819464FF47A73B3FBF3
:1015EC00F1F3B2FBF3F3184600F03BF90346002B82
:1015FC0001D001230EE07B680F2B0AD800227968FA
:10160C004FF0FF3000F003F9064A7B6813600023AB
:10161C0000E0012318460837BD4680BD8800002035
:10162C00900000208C00002080B400AF054B1B788C
:10163C001A46054B1B681344034A136000BFBD4692
:10164C0080BC7047900000206C01002080B400AF7B
:10165C00024B1B681846BD4680BC70476C010020CD
:10166C0080B485B000AF78607B6803F00703FB6043
:10167C000C4BDB68BB60BA684FF6FF031340BB60D2
:10168C00FB681A02BB68134343F0BF6343F4003397
:10169C00BB60044ABB68D36000BF1437BD4680BC36
:1016AC00704700BF00ED00E080B400AF044BDB6876
:1016BC001B0A03F007031846BD4680BC704700BFE9
:1016CC0000ED00E080B483B000AF0346FB7197F9E6
:1016DC000730002B0BDBFB7903F01F02064997F94F
:1016EC0007305B09012000FA02F241F8232000BF09
:1016FC000C37BD4680BC704700E100E080B483B07D
:10170C0000AF03463960FB7197F90730002B0ADBF9
:10171C003B68DAB20C4997F907301201D2B20B448C
:10172C0083F800230AE03B68DAB20849FB7903F03E
:10173C000F03043B1201D2B20B441A7600BF0C37D4
:10174C00BD4680BC704700BF00E100E000ED00E04A
:10175C0080B489B000AFF860B9607A60FB6803F0C0
:10176C000703FB61FB69C3F10703042B28BF0423A8
:10177C00BB61FB690433062B02D9FB69033B00E018
:10178C0000237B614FF0FF32BB6902FA03F3DA43AB
:10179C00BB681A407B699A404FF0FF317B6901FAB4
:1017AC0003F3D9437B680B40134318462437BD46DB
:1017BC0080BC704780B582B000AF78607B68013B1D
:1017CC00B3F1807F01D301230FE00A4A7B68013B10
:1017DC0053600F214FF0FF30FFF790FF054B0022B5
:1017EC009A60044B07221A60002318460837BD463E
:1017FC0080BD00BF10E000E080B582B000AF786023
:10180C007868FFF72DFF00BF0837BD4680BD80B557
:10181C0086B000AF0346B9607A60FB7300237B612E
:10182C00FFF742FF78617A68B9687869FFF790FF33
:10183C00024697F90F3011461846FFF75FFF00BFBD
:10184C001837BD4680BD80B582B000AF0346FB7132
:10185C0097F907301846FFF735FF00BF0837BD462C
:10186C0080BD80B582B000AF78607868FFF7A2FFCA
:10187C00034618460837BD4680BD000080B48BB0C7
:10188C0000AF7860396000237B6200233B6248E143
:10189C0001227B6A02FA03F3FB613B681B68FA695D
:1018AC001340BB61BA69FB699A4240F037813B68CF
:1018BC005B68A34A93425ED0A14A934275D8A14A71
:1018CC00934258D09F4A93426FD89F4A934252D02A
:1018DC009D4A934269D89D4A93424CD09B4A93426D
:1018EC0063D89B4A934246D0994A93425DD8122BB7
:1018FC002AD8122B59D801A252F823F083190008C8
:10190C005D1900086F190008B1190008B719000813
:10191C00B7190008B7190008B7190008B71900085B
:10192C00B7190008B7190008B7190008B71900084B
:10193C00B7190008B7190008B7190008B71900083B
:10194C006519000879190008824A934213D02CE0DB
:10195C003B68DB683B6229E03B68DB6804333B6235
:10196C0024E03B68DB6808333B621FE03B68DB68C4
:10197C000C333B621AE03B689B68002B02D10423BA
:10198C003B6213E03B689B68012B05D108233B624B
:10199C007B68FA691A6109E008233B627B68FA6983
:1019AC005A6103E000233B6200E000BFBB69FF2BE0
:1019BC0001D87B6801E07B6804337B61BB69FF2B3A
:1019CC0002D87B6A9B0002E07B6A083B9B003B6170
:1019DC007B691A680F213B6901FA03F3DB431A4058
:1019EC00396A3B6901FA03F31A437B691A603B6855
:1019FC005B6803F08053002B00F09080564B9B6982
:101A0C00554A43F001039361534B9B6903F0010367
:101A1C00BB60BB68514A7B6A9B08023352F8233087
:101A2C00FB607B6A03F003039B000F2202FA03F3B3
:101A3C00DB43FA681340FB607B68494A93420DD044
:101A4C007B68484A934207D07B68474A934201D14E
:101A5C00022304E0032302E0012300E000237A6A5E
:101A6C0002F0030292009340FA681343FB603B4977
:101A7C007B6A9B080233FA6841F823203B685B6859
:101A8C0003F48013002B06D0384B9A683749BB6996
:101A9C0013438B6006E0354B9A68BB69DB433349D3
:101AAC0013408B603B685B6803F40013002B06D07B
:101ABC002E4BDA682D49BB691343CB6006E02B4BE8
:101ACC00DA68BB69DB4329491340CB603B685B6830
:101ADC0003F40033002B06D0244B5A682349BB690E
:101AEC0013434B6006E0214B5A68BB69DB431F492B
:101AFC0013404B603B685B6803F48033002B06D0CB
:101B0C001A4B1A681949BB6913430B6006E0174B53
:101B1C001A68BB69DB43154913400B607B6A0133C0
:101B2C007B623B681A687B6A22FA03F3002B7FF412
:101B3C00AFAE00BF00BF2C37BD4680BC704700BFA6
:101B4C0000003210000031100000221000002110A3
:101B5C0000001210000011100010024000000140A3
:101B6C0000080140000C014000100140000401403D
:101B7C0080B485B000AF78600B467B807B689A6838
:101B8C007B881340002B02D00123FB7301E0002360
:101B9C00FB73FB7B18461437BD4680BC704780B482
:101BAC0083B000AF78600B467B8013467B707B78EC
:101BBC00002B03D07A887B681A6103E07B881A04B7
:101BCC007B681A6100BF0C37BD4680BC704780B47F
:101BDC0085B000AF78600B467B807B68DB68FB6070
:101BEC007A88FB6813401A04FB68D9437B880B4046
:101BFC001A437B681A6100BF1437BD4680BC70471E
:101C0C0080B586B000AF78607B68002B01D10123D2
:101C1C006CE27B681B6803F00103002B00F08780EB
:101C2C00924B5B6803F00C03042B0CD08F4B5B685E
:101C3C0003F00C03082B12D18C4B5B6803F480333C
:101C4C00B3F5803F0BD1894B1B6803F40033002B99
:101C5C006CD07B685B68002B68D1012346E27B6803
:101C6C005B68B3F5803F06D1804B1B687F4A43F419
:101C7C00803313602EE07B685B68002B0CD17B4BB0
:101C8C001B687A4A23F480331360784B1B68774ABD
:101C9C0023F4802313601DE07B685B68B3F5A02FF1
:101CAC000CD1724B1B68714A43F4802313606F4B49
:101CBC001B686E4A43F4803313600BE06B4B1B685C
:101CCC006A4A23F480331360684B1B68674A23F419
:101CDC00802313607B685B68002B13D0FFF7B6FC86
:101CEC00386108E0FFF7B2FC02463B69D31A642B5B
:101CFC0001D90323FAE15D4B1B6803F40033002B7D
:101D0C00F0D014E0FFF7A2FC386108E0FFF79EFC6E
:101D1C0002463B69D31A642B01D90323E6E1534BEA
:101D2C001B6803F40033002BF0D100E000BF7B688C
:101D3C001B6803F00203002B63D04C4B5B6803F071
:101D4C000C03002B0BD0494B5B6803F00C03082BE6
:101D5C001CD1464B5B6803F48033002B16D1434BEC
:101D6C001B6803F00203002B05D07B681B69012B59
:101D7C0001D00123BAE13D4B1B6823F0F8027B68CC
:101D8C005B69DB00394913430B603AE07B681B69E4
:101D9C00002B20D0364B01221A60FFF757FC38611C
:101DAC0008E0FFF753FC02463B69D31A022B01D91A
:101DBC0003239BE12D4B1B6803F00203002BF0D097
:101DCC002A4B1B6823F0F8027B685B69DB00274910
:101DDC0013430B6015E0264B00221A60FFF736FC0C
:101DEC00386108E0FFF732FC02463B69D31A022B3C
:101DFC0001D903237AE11D4B1B6803F00203002B6E
:101E0C00F0D17B681B6803F00803002B3AD07B6889
:101E1C009B69002B19D0174B01221A60FFF716FC97
:101E2C00386108E0FFF712FC02463B69D31A022B1B
:101E3C0001D903235AE10D4B5B6A03F00203002B1B
:101E4C00F0D0012000F09AFA1CE00A4B00221A6034
:101E5C00FFF7FCFB38610FE0FFF7F8FB02463B692C
:101E6C00D31A022B08D9032340E100BF0010024013
:101E7C0000004242800442429E4B5B6A03F0020324
:101E8C00002BE9D17B681B6803F00403002B00F0E6
:101E9C00A6800023FB75974BDB6903F08053002B66
:101EAC000DD1944BDB69934A43F08053D361914B32
:101EBC00DB6903F08053BB60BB680123FB758E4B61
:101ECC001B6803F48073002B18D18B4B1B688A4A58
:101EDC0043F480731360FFF7B9FB386108E0FFF738
:101EEC00B5FB02463B69D31A642B01D90323FDE0F1
:101EFC00814B1B6803F48073002BF0D07B68DB688C
:101F0C00012B06D17B4B1B6A7A4A43F00103136207
:101F1C002DE07B68DB68002B0CD1764B1B6A754A75
:101F2C0023F001031362734B1B6A724A23F0040300
:101F3C0013621CE07B68DB68052B0CD16D4B1B6AB4
:101F4C006C4A43F0040313626A4B1B6A694A43F000
:101F5C00010313620BE0674B1B6A664A23F0010313
:101F6C001362644B1B6A634A23F0040313627B689D
:101F7C00DB68002B15D0FFF769FB38610AE0FFF72F
:101F8C0065FB02463B69D31A41F28832934201D970
:101F9C000323ABE0574B1B6A03F00203002BEED07C
:101FAC0014E0FFF753FB38610AE0FFF74FFB0246E2
:101FBC003B69D31A41F28832934201D9032395E04D
:101FCC004C4B1B6A03F00203002BEED1FB7D012B63
:101FDC0005D1484BDB69474A23F08053D3617B68BA
:101FEC00DB69002B00F08180424B5B6803F00C0333
:101FFC00082B61D07B68DB69022B46D13F4B00225A
:10200C001A60FFF723FB386108E0FFF71FFB02465D
:10201C003B69D31A022B01D9032367E0354B1B68AC
:10202C0003F00073002BF0D17B681B6AB3F5803F83
:10203C0008D1304B5B6823F400327B689B682D49D8
:10204C0013434B602B4B5B6823F474127B68196A47
:10205C007B685B6A0B43274913434B60274B012278
:10206C001A60FFF7F3FA386108E0FFF7EFFA02465F
:10207C003B69D31A022B01D9032337E01D4B1B6894
:10208C0003F00073002BF0D02FE01C4B00221A60E1
:10209C00FFF7DCFA386108E0FFF7D8FA02463B6933
:1020AC00D31A022B01D9032320E0124B1B6803F037
:1020BC000073002BF0D118E07B68DB69012B01D198
:1020CC00012313E00B4B5B68FB60FB6803F480326D
:1020DC007B681B6A9A4206D1FB6803F470127B681A
:1020EC005B6A9A4201D0012300E00023184618379E
:1020FC00BD4680BD001002400070004060004242AE
:10210C0080B584B000AF786039607B68002B01D15A
:10211C000123D0E06A4B1B6803F007033A689A422C
:10212C0010D9674B1B6823F0070265493B681343C2
:10213C000B60634B1B6803F007033A689A4201D0AB
:10214C000123B8E07B681B6803F00203002B20D04E
:10215C007B681B6803F00403002B05D0594B5B68AC
:10216C00584A43F4E06353607B681B6803F0080330
:10217C00002B05D0534B5B68524A43F460535360B9
:10218C00504B5B6823F0F0027B689B684D4913430E
:10219C004B607B681B6803F00103002B40D07B680D
:1021AC005B68012B07D1474B1B6803F40033002BF2
:1021BC0015D101237FE07B685B68022B07D1414B73
:1021CC001B6803F00073002B09D1012373E03D4B16
:1021DC001B6803F00203002B01D101236BE0394B88
:1021EC005B6823F003027B685B68364913434B60E2
:1021FC00FFF72CFAF8600AE0FFF728FA0246FB68B2
:10220C00D31A41F28832934201D9032353E02D4B68
:10221C005B6803F00C027B685B689B009A42EBD115
:10222C00274B1B6803F007033A689A4210D2244BE1
:10223C001B6823F0070222493B6813430B60204BB9
:10224C001B6803F007033A689A4201D0012332E07D
:10225C007B681B6803F00403002B08D0194B5B68E8
:10226C0023F4E0627B68DB68164913434B607B68A0
:10227C001B6803F00803002B09D0124B5B6823F496
:10228C0060527B681B69DB000E4913434B6000F006
:10229C0021F802460B4B5B681B0903F00F030A493C
:1022AC00CB5C22FA03F3094A1360094B1B681846EE
:1022BC00FFF78AF9002318461037BD4680BD00BFD2
:1022CC000020024000100240EC2B00088800002087
:1022DC008C00002080B487B000AF0023FB6000238B
:1022EC00BB6000237B6100237B6000233B611E4BA2
:1022FC005B68FB60FB6803F00C03042B02D0082B1B
:10230C0003D027E0194B3B6127E0FB689B0C03F0E3
:10231C000F03174AD35C7B60FB6803F48033002BFC
:10232C0010D0114B5B685B0C03F00103114AD35CBA
:10233C00BB607B680D4A02FB03F2BB68B2FBF3F394
:10234C007B6104E07B680C4A02FB03F37B617B69D5
:10235C003B6102E0054B3B6100BF3B6918461C37F3
:10236C00BD4680BC704700BF0010024000127A00CE
:10237C00FC2B00080C2C000800093D0080B485B033
:10238C0000AF78600A4B1B680A4AA2FB03235B0A66
:10239C007A6802FB03F3FB6000BFFB685A1EFA600D
:1023AC00002BF9D100BF00BF1437BD4680BC70476D
:1023BC0088000020D34D621080B582B000AF7860E9
:1023CC007B68002B01D1012341E07B6893F83D3001
:1023DC00DBB2002B06D17B68002283F83C207868A6
:1023EC00FFF75AF87B68022283F83D207B681A6855
:1023FC007B6804331946104600F056FA7B680122BC
:10240C0083F846207B68012283F83E207B680122FA
:10241C0083F83F207B68012283F840207B680122EF
:10242C0083F841207B68012283F842207B680122DB
:10243C0083F843207B68012283F844207B680122C7
:10244C0083F845207B68012283F83D200023184641
:10245C000837BD4680BD000080B485B000AF786001
:10246C007B6893F83D30DBB2012B01D0012335E0C2
:10247C007B68022283F83D207B681B68DA687B68E6
:10248C001B6842F00102DA607B681B68164A9342B3
:10249C0009D07B681B68B3F1804F04D07B681B6844
:1024AC00124A934211D17B681B689B6803F00703A7
:1024BC00FB60FB68062B10D07B681B681A687B6876
:1024CC001B6842F001021A6007E07B681B681A68FF
:1024DC007B681B6842F001021A600023184614370F
:1024EC00BD4680BC704700BF002C0140000400407A
:1024FC0080B584B000AF78607B681B68DB68FB60DC
:10250C007B681B681B69BB60BB6803F00203002B74
:10251C0020D0FB6803F00203002B1BD07B681B68E8
:10252C006FF002021A617B6801221A777B681B68C4
:10253C009B6903F00303002B03D0786800F098F933
:10254C0005E0786800F08BF9786800F09AF97B6800
:10255C0000221A77BB6803F00403002B20D0FB6821
:10256C0003F00403002B1BD07B681B686FF0040284
:10257C001A617B6802221A777B681B689B6903F4DB
:10258C004073002B03D0786800F072F905E078688E
:10259C0000F065F9786800F074F97B6800221A770E
:1025AC00BB6803F00803002B20D0FB6803F0080382
:1025BC00002B1BD07B681B686FF008021A617B68CC
:1025CC0004221A777B681B68DB6903F00303002B7A
:1025DC0003D0786800F04CF905E0786800F03FF91A
:1025EC00786800F04EF97B6800221A77BB6803F01C
:1025FC001003002B20D0FB6803F01003002B1BD022
:10260C007B681B686FF010021A617B6808221A77CE
:10261C007B681B68DB6903F44073002B03D078687C
:10262C0000F026F905E0786800F019F9786800F0F8
:10263C0028F97B6800221A77BB6803F00103002B92
:10264C000CD0FB6803F00103002B07D07B681B68E0
:10265C006FF001021A617868FDF7C6FFBB6803F0E2
:10266C008003002B0CD0FB6803F08003002B07D0F9
:10267C007B681B686FF080021A61786800F06FFA53
:10268C00BB6803F04003002B0CD0FB6803F0400345
:10269C00002B07D07B681B686FF040021A617868CA
:1026AC0000F0F8F8BB6803F02003002B0CD0FB689B
:1026BC0003F02003002B07D07B681B686FF020020F
:1026CC001A61786800F042FA00BF1037BD4680BD31
:1026DC0080B584B000AF786039600023FB737B68F1
:1026EC0093F83C30012B01D10223B4E07B6801222A
:1026FC0083F83C207B68022283F83D207B681B68B2
:10270C009B68BB60BB6823F07703BB60BB6823F49A
:10271C007F43BB607B681B68BA689A603B681B6828
:10272C00B3F5005F3ED0B3F5005F00F28780B3F5E0
:10273C00805F00F08680B3F5805F7FD8702B1AD055
:10274C00702B7BD8602B50D0602B77D8502B3CD083
:10275C00502B73D8402B58D0402B6FD8302B64D0D3
:10276C00302B6BD8202B60D0202B67D8002B5CD063
:10277C00102B5AD062E07B6818683B6899683B68FC
:10278C005A683B68DB6800F06AF97B681B689B68D9
:10279C00BB60BB6843F07703BB607B681B68BA689F
:1027AC009A604FE07B6818683B6899683B685A6888
:1027BC003B68DB6800F053F97B681B689A687B68A0
:1027CC001B6842F480429A603CE07B6818683B6866
:1027DC0059683B68DB681A4600F0CAF87B681B68CE
:1027EC005021184600F021F92CE07B6818683B68F2
:1027FC0059683B68DB681A4600F0E8F87B681B6890
:10280C006021184600F011F91CE07B6818683B68E1
:10281C0059683B68DB681A4600F0AAF87B681B68AD
:10282C004021184600F001F90CE07B681A683B68FF
:10283C001B681946104600F0F8F803E00123FB73FF
:10284C0000E000BF7B68012283F83D207B680022FA
:10285C0083F83C20FB7B18461037BD4680BD80B406
:10286C0083B000AF786000BF0C37BD4680BC7047AA
:10287C0080B483B000AF786000BF0C37BD4680BC1D
:10288C00704780B483B000AF786000BF0C37BD4692
:10289C0080BC704780B483B000AF786000BF0C3749
:1028AC00BD4680BC7047000080B485B000AF786036
:1028BC0039607B681B68FB607B682B4A934207D0AE
:1028CC007B68B3F1804F03D07B68284A934208D1D0
:1028DC00FB6823F07003FB603B685B68FA6813438A
:1028EC00FB607B68204A934207D07B68B3F1804F32
:1028FC0003D07B681D4A934208D1FB6823F44073D4
:10290C00FB603B68DB68FA681343FB60FB6823F0F1
:10291C0080023B685B691343FB607B68FA681A6052
:10292C003B689A687B68DA623B681A687B689A62D3
:10293C007B680D4A934203D13B681A697B681A6322
:10294C007B6801225A617B681B6903F00103002B31
:10295C0005D07B681B6923F001027B681A6100BFFC
:10296C001437BD4680BC7047002C01400004004069
:10297C0080B487B000AFF860B9607A60FB681B6AFE
:10298C007B61FB681B6A23F00102FB681A62FB681F
:10299C009B693B613B6923F0F0033B617B681B0146
:1029AC003A6913433B617B6923F00A037B617A69C3
:1029BC00BB6813437B61FB683A699A61FB687A696F
:1029CC001A6200BF1C37BD4680BC704780B487B00C
:1029DC0000AFF860B9607A60FB681B6A7B61FB68CA
:1029EC001B6A23F01002FB681A62FB689B693B614F
:1029FC003B6923F470433B617B681B033A691343C7
:102A0C003B617B6923F0A0037B61BB681B017A6986
:102A1C0013437B61FB683A699A61FB687A691A62B5
:102A2C0000BF1C37BD4680BC704780B485B000AF7A
:102A3C00786039607B689B68FB60FB6823F07003EF
:102A4C00FB603A68FB68134343F00703FB607B6849
:102A5C00FA689A6000BF1437BD4680BC704780B4DA
:102A6C0087B000AFF860B9607A603B60FB689B6828
:102A7C007B617B6923F47F437B613B681A027B6833
:102A8C001A43BB6813437A6913437B61FB687A6909
:102A9C009A6000BF1C37BD4680BC704780B485B0BF
:102AAC0000AF786039607B6893F83C30012B01D122
:102ABC00022341E07B68012283F83C207B680222E0
:102ACC0083F83D207B681B685B68FB607B681B6838
:102ADC009B68BB60FB6823F07003FB603B681B6862
:102AEC00FA681343FB607B681B68FA685A607B6862
:102AFC001B68144A934209D07B681B68B3F1804F62
:102B0C0004D07B681B68104A93420CD1BB6823F03D
:102B1C008003BB603B685B68BA681343BB607B682F
:102B2C001B68BA689A607B68012283F83D207B6839
:102B3C00002283F83C20002318461437BD4680BC85
:102B4C00704700BF002C01400004004080B483B0EB
:102B5C0000AF786000BF0C37BD4680BC704780B4B6
:102B6C0083B000AF786000BF0C37BD4680BC7047A7
:102B7C0070B500260C4D0D4C641BA410A64209D157
:102B8C0000F022F800260A4D0A4C641BA410A64241
:102B9C0005D170BD55F8043B98470136EEE755F862
:102BAC00043B98470136F2E7102C0008102C000863
:102BBC00102C0008142C000803460244934200D148
:102BCC00704703F8011BF9E7F8B500BFF8BC08BC67
:102BDC009E467047F8B500BFF8BC08BC9E467047CF
:102BEC0000000000000000000102030406070809B1
:102BFC0002030405060708090A0B0C0D0E0F101032
:042C0C0001020000C1
:042C10003101000886
:042C14000D010008A6
:102C180001000000000000000000000001000000AA
:102C2800000000000000000001000000000000009B
:102C3800000000000100000000000000000000008B
:102C4800C800000000000000000000000010014063
:102C580000100140000C014000200040000400006A
:102C680088130000B80B0000D00700000500000022
:102C7800030000000200000010270000F40100001B
:102C8800F4010000F4010000C80000000100000089
:102C9800010000000100000000127A00100000008E
:042CA8000100000027
:040000050800155D7D
:00000001FF
