:020000040800F2
:100000000028002031170008C1160008C716000894
:10001000CD160008D3160008D9160008000000000D
:10002000000000000000000000000000DF160008D3
:10003000EB16000800000000F71600080317000880
:100040007917000879170008791700087917000850
:100050007917000879170008791700087917000840
:100060007917000879170008791700087917000830
:100070007917000879170008791700087917000820
:100080007917000879170008791700087917000810
:100090007917000879170008791700087917000800
:1000A00079170008791700087917000879170008F0
:1000B00011170008791700080000000079170008E0
:1000C0007917000800000000000000007917000800
:1000D00000000000791700087917000800000000F0
:1000E0007917000879170008791700080000000048
:1000F0000000000000000000000000000000000000
:0C01000000000000000000005FF808F1A3
:10010C0010B5054C237833B9044B13B10448AFF345
:10011C0000800123237010BDA0000020000000000F
:10012C00A82D000808B5034B1BB103490348AFF3D6
:10013C00008008BD00000000A4000020A82D0008CD
:10014C0080B500AF012201210E4801F012FE012200
:10015C0002210C4801F00DFE01220421094801F096
:10016C0008FE01222021074801F003FE0122102184
:10017C00044801F0FEFD01220821024801F0F9FDBE
:10018C0000BF80BD0008014080B500AF1A4B1B6852
:10019C00013B042B2CD801A252F823F0BD0100081E
:1001AC00E5010008EB010008F1010008F701000867
:1001BC00FFF7C6FF114B08221A600F4B02221A6080
:1001CC000F4B13221A600F4B1B680F4A1268114613
:1001DC00184600F04FFD0CE000F026FE09E000F0A0
:1001EC0097FE06E000F0DCFE03E000F01FFF00E0ED
:1001FC0000BF00BF80BD00BFC800002078000020F9
:10020C00840000205C0000206400002080B483B0D7
:10021C0000AF7860044A7B68012142F8231000BFCC
:10022C000C37BD4680BC7047BC00002080B400AFCA
:10023C00064B00221A60054B00225A60034B002229
:10024C009A6000BFBD4680BC704700BFBC00002058
:10025C0080B582B000AF00237B6012E0484A7B6817
:10026C0052F8232047497B6841F82320464A7B6893
:10027C0052F8232042497B6841F823207B680133E4
:10028C007B607B68022BE9DD404B1B68404A12887F
:10029C001146184601F056FD03461A463A4B1A60B1
:1002AC003A4B5B683A4A52881146184601F04AFDAF
:1002BC0003461A46344B5A60344B9B68344A928836
:1002CC001146184601F03EFD03461A462E4B9A6025
:1002DC0000233B604BE02B4A3B6852F82320284913
:1002EC003B6851F823309A423ED1254A3B6852F87C
:1002FC00232025493B6851F823309A4234D1254AB2
:10030C003B6852F8232020493B6851F823309A422D
:10031C0016D01D4A3B6852F823201E493B6841F811
:10032C002320194A3B6852F82330002B1CD11A4A5F
:10033C003B68C82142F823103868FFF767FF13E0C9
:10034C00154A3B6852F823305A1E13493B6841F852
:10035C002320114A3B6852F82330002B04D10D4A5C
:10036C003B68012142F823103B6801333B603B683A
:10037C00022BB0DD00BF00BF0837BD4680BD00BFFB
:10038C000C00002000000020180000203C00002081
:10039C0048000020240000203000002080B500AF71
:1003AC0001F0E6F900F044F800F0CAF800F07CF82F
:1003BC00174802F03BF9174B01221A60FA21022070
:1003CC0001F002F94FF47A71042001F0FDF81922C2
:1003DC001921114801F018F8282264210F4801F066
:1003EC0013F8192219210E4801F00EF819221921BF
:1003FC000C4801F009F8192219210B4801F004F8F6
:10040C0001228021094801F0B4FC01F055F8FCE709
:10041C00E0000020C8000020C90B0008F90B000800
:10042C0095010008A10600086906000800080140B3
:10043C0080B590B000AF07F11803282200211846B0
:10044C0002F0A4FC3B1D00221A605A609A60DA602C
:10045C001A610223BB610123BB621023FB620023E0
:10046C007B6307F11803184601F0B4FC0346002B1C
:10047C0001D000F0EDF80F237B600023BB6000235C
:10048C00FB6000233B6100237B613B1D0021184670
:10049C0001F020FF0346002B01D000F0D9F800BF7B
:1004AC004037BD4680BD000080B586B000AF07F177
:1004BC00080300221A605A609A60DA603B460022F8
:1004CC001A605A601D4B4FF080421A601B4B41F66C
:1004DC003F725A60194B00229A60184B0922DA605D
:1004EC00164B00221A61154B00229A61134802F038
:1004FC004DF80346002B01D000F0AAF84FF48053BE
:10050C00BB6007F1080319460C4802F0CBF903460F
:10051C00002B01D000F09CF800233B6000237B6093
:10052C003B461946054802F0A3FB0346002B01D0BD
:10053C0000F08EF800BF1837BD4680BDE0000020EB
:10054C0080B588B000AF07F1100300221A605A6022
:10055C009A60DA60344B9B69334A43F01003936121
:10056C00314B9B6903F01003FB60FB682E4B9B69BE
:10057C002D4A43F0040393612B4B9B6903F0040356
:10058C00BB60BB68284B9B69274A43F00803936107
:10059C00254B9B6903F008037B607B68002247F6C0
:1005AC00BF71224801F0E5FB00220F21204801F029
:1005BC00E0FB4FF4C0433B6100237B610123BB6133
:1005CC0007F1100319461B4801F042FA47F6BF73B6
:1005DC003B6101237B610023BB610223FB6107F1BB
:1005EC0010031946114801F033FA0F233B61012324
:1005FC007B610023BB610223FB6107F110031946E9
:10060C000B4801F025FA4FF400633B6100237B613A
:10061C000123BB6107F110031946054801F018FAD4
:10062C0000BF2037BD4680BD0010024000080140CD
:10063C00000C01400010014080B582B000AF786022
:10064C0000F072FEFFF704FE00BF0837BD4680BD08
:10065C0080B400AF72B600BFFEE7000080B500AFFB
:10066C000B4B1B680F2B09D00F2B0DDC0D2B02D065
:10067C000E2B06D008E000F081FD06E000F0E0FD56
:10068C0003E000F02BFE00E000BF00BF80BD00BF08
:10069C00C800002080B500AF0C4B1B68132B02D098
:1006AC00142B03D00FE000F023FB0CE0084B1B686D
:1006BC00184600F057FB00F001FD064B1B6818466E
:1006CC0000F088FB00BF00BF80BD00BF840000208D
:1006DC0080000020DC00002080B582B000AF786084
:1006EC007B68092B00F2C88101A252F823F000BFED
:1006FC00250700087B070008D10700082708000819
:10070C007D080008D3080008290900087F090008A3
:10071C00D50900082B0A000800224FF48071D54837
:10072C0001F027FB00224FF40071D24801F021FBAD
:10073C0000224FF48061CF4801F01BFB00224FF4E4
:10074C000061CC4801F015FB00224FF48051C948E0
:10075C0001F00FFB00224FF40051C64801F009FBD9
:10076C0001224FF48041C34801F003FB87E10122D1
:10077C004FF48071BF4801F0FCFA00224FF4007175
:10078C00BC4801F0F6FA00224FF48061B94801F040
:10079C00F0FA01224FF40061B64801F0EAFA0122A6
:1007AC004FF48051B34801F0E4FA01224FF40051A8
:1007BC00B04801F0DEFA01224FF48041AD4801F05F
:1007CC00D8FA5CE100224FF48071AA4801F0D1FA0A
:1007DC0000224FF40071A74801F0CBFA01224FF42C
:1007EC008061A44801F0C5FA00224FF40061A148D1
:1007FC0001F0BFFA00224FF480519E4801F0B9FA83
:10080C0001224FF400519B4801F0B3FA00224FF43F
:10081C008041984801F0ADFA31E100224FF480712B
:10082C00944801F0A6FA00224FF40071914801F0AF
:10083C00A0FA00224FF480618E4801F09AFA00224F
:10084C004FF400618B4801F094FA01224FF480516F
:10085C00884801F08EFA01224FF40051854801F0CE
:10086C0088FA00224FF48041824801F082FA06E1B6
:10087C0001224FF480717F4801F07BFA00224FF483
:10088C0000717C4801F075FA00224FF480617948C0
:10089C0001F06FFA01224FF40061764801F069FA19
:1008AC0001224FF48051734801F063FA00224FF497
:1008BC000051704801F05DFA00224FF480416D4800
:1008CC0001F057FADBE000224FF48071694801F027
:1008DC0050FA01224FF40071664801F04AFA0022E6
:1008EC004FF48061634801F044FA00224FF4006138
:1008FC00604801F03EFA01224FF480515D4801F04E
:10090C0038FA00224FF400515A4801F032FA002212
:10091C004FF48041574801F02CFAB0E000224FF41C
:10092C008071544801F025FA01224FF400715148AE
:10093C0001F01FFA00224FF480614E4801F019FAC1
:10094C0000224FF400614B4801F013FA00224FF4DF
:10095C008051484801F00DFA00224FF400514548EF
:10096C0001F007FA00224FF48041424801F001FAED
:10097C0085E000224FF480713E4801F0FAF9002224
:10098C004FF400713B4801F0F4F900224FF4806100
:10099C00384801F0EEF901224FF40061354801F0BE
:1009AC00E8F901224FF48051324801F0E2F90122BA
:1009BC004FF400512F4801F0DCF901224FF4804133
:1009CC002C4801F0D6F95AE000224FF480712948E6
:1009DC0001F0CFF900224FF40071264801F0C9F95B
:1009EC0000224FF48061234801F0C3F900224FF438
:1009FC000061204801F0BDF900224FF480511D48E0
:100A0C0001F0B7F900224FF400511A4801F0B1F986
:100A1C0000224FF48041174801F0ABF92FE000227F
:100A2C004FF48071134801F0A4F900224FF40071C7
:100A3C00104801F09EF900224FF480610D4801F03E
:100A4C0098F900224FF400610A4801F092F9012252
:100A5C004FF48051074801F08CF900224FF40051FB
:100A6C00044801F086F900224FF48041014801F05E
:100A7C0080F904E00008014000237B6000BF00BF48
:100A8C000837BD4680BD00BF80B400AF074B0022C5
:100A9C001A60064B00225A60044B00229A60034BEA
:100AAC000022DA6000BFBD4680BC7047CC0000203D
:100ABC0080B582B000AF78607B68013B032B73D8A4
:100ACC0001A252F823F000BFE50A0008190B000838
:100ADC004D0B0008810B0008364B1B681846FFF7BE
:100AEC00FBFD00220121344801F043F901220221CF
:100AFC00314801F03EF9012204212F4801F039F967
:100B0C00012208212C4801F034F94EE0294B5B6896
:100B1C001846FFF7E1FD01220121274801F029F9D0
:100B2C0000220221244801F024F901220421224848
:100B3C0001F01FF9012208211F4801F01AF934E0D5
:100B4C001C4B9B681846FFF7C7FD012201211A4870
:100B5C0001F00FF901220221174801F00AF90022D5
:100B6C000421154801F005F901220821124801F071
:100B7C0000F91AE00F4BDB681846FFF7ADFD0122B8
:100B8C0001210D4801F0F5F8012202210A4801F07B
:100B9C00F0F801220421084801F0EBF800220821AA
:100BAC00054801F0E6F800E000BF00BF0837BD467D
:100BBC0080BD00BFCC000020000C014080B500AF10
:100BCC00094B1B681846FFF773FF074B1B68013373
:100BDC00054A1360044B1B68042B02DD024B0022F8
:100BEC001A6000BF80BD00BF8800002080B500AF38
:100BFC00084B1B68013B074A1360064B1B68002B14
:100C0C0006D1044B05221A608021034801F0C9F873
:100C1C0000BF80BD8C0000200008014080B500AFF3
:100C2C000E4B9B68012B17D10C4B00229A600C4B7E
:100C3C0002221A600B4B1B689B000B4A13600B4B78
:100C4C001B68084A12681146184600F013F8FFF7A3
:100C5C0077FA074B13221A6000BF80BDBC0000203E
:100C6C00C800002064000020780000205C000020F8
:100C7C008400002080B582B000AF78603960FFF747
:100C8C0003FF7B68184A82FB03129210DB17D31AFE
:100C9C00164A13607968144B83FB01239A10CB1707
:100CAC00D21A13469B0013445B00CA1A0F4B5A60AE
:100CBC003B680D4A82FB03129210DB17D31A0B4AC6
:100CCC0093603968084B83FB01239A10CB17D21A17
:100CDC0013469B0013445B00CA1A044BDA6000BF36
:100CEC000837BD4680BD00BF67666666CC00002035
:100CFC0080B400AF194B1B68013B184A1360174BAB
:100D0C001B68002B26D1164B1B68002B04D0144BF0
:100D1C001B68013B124A1360114B5B68002B04D01B
:100D2C000F4B5B68013B0E4A53600D4B9B68002BCD
:100D3C0004D00B4B9B68013B094A9360084BDB6862
:100D4C00002B04D0064BDB68013B054AD360034BF8
:100D5C0004221A6000BFBD4680BC70479000002082
:100D6C00CC00002080B483B000AF7860164A7B685A
:100D7C001360164B00221A60144B00225A60134B5E
:100D8C0000229A60114B0022DA600F4B1B68104A4C
:100D9C0082FB03129210DB17D31A0C4A13600A4B16
:100DAC0019680B4B83FB01239A10CB17D21A1346ED
:100DBC009B0013445B00CA1A044B5A6000BF0C37EB
:100DCC00BD4680BC704700BF80000020CC000020D6
:100DDC006766666680B483B000AF7860104B002203
:100DEC009A600F4B0022DA607B680E4A82FB03127A
:100DFC009210DB17D31A0A4A93607968094B83FB6C
:100E0C0001239A10CB17D21A13469B0013445B0094
:100E1C00CA1A034BDA6000BF0C37BD4680BC704762
:100E2C00CC0000206766666680B500AF0022012109
:100E3C002D4800F09EFF012202212B4800F099FF63
:100E4C0001220421284800F094FF0022202126488A
:100E5C0000F08FFF01221021234800F08AFF0122AD
:100E6C000821214800F085FF204B1B68013B1F4ADD
:100E7C0013601E4B1B68002B0FD11D4B1B689B0076
:100E8C001C4A13601C4B03221A60194B1B68184A2E
:100E9C00126811461846FFF7EDFE184B1B68012B24
:100EAC001FD1154B0D221A60FFF74AF9144B28225B
:100EBC001A60144B02221A60FFF7B8F900220121C4
:100ECC00094800F056FF00220821074800F051FFA6
:100EDC000D4B14221A600220FFF744FF0B4B00222B
:100EEC001A6000BF80BD00BF0008014078000020E0
:100EFC00600000207C000020C8000020BC00002006
:100F0C00680000206C00002084000020DC00002021
:100F1C0080B500AF002201211B4800F02AFF0122FE
:100F2C000221194800F025FF01220421164800F087
:100F3C0020FF164B1B68013B144A13600122202131
:100F4C00114800F016FF002210210F4800F011FF8D
:100F5C00012208210C4800F00CFF0C4B1B68002BE5
:100F6C000FD10B4B1B689B000A4A13600A4B0422DF
:100F7C001A60074B1B68094A126811461846FFF79E
:100F8C0079FE00BF80BD00BF000801407C0000203E
:100F9C006400002078000020C80000205C000020C5
:100FAC0080B500AF012201211B4800F0E2FE0122B6
:100FBC000221194800F0DDFE00220421164800F041
:100FCC00D8FE01222021144800F0D3FE012210216A
:100FDC00114800F0CEFE002208210F4800F0C9FE97
:100FEC000E4B1B68013B0D4A13600C4B1B68002B0E
:100FFC000FD10B4B1B680A4A126811461846FFF7B3
:10100C0039FE074B1B689B00064A1360064B0522F2
:10101C001A6000BF80BD00BF0008014078000020AE
:10102C00600000207C000020C800002080B500AFCC
:10103C00012201211B4800F09CFE002202211948CC
:10104C0000F097FE01220421164800F092FE0122C6
:10105C002021144800F08DFE01221021114800F0CF
:10106C0088FE002208210F4800F083FE0E4B1B68FF
:10107C00013B0D4A13600C4B1B68002B0FD10B4B23
:10108C001B689B000A4A13600A4B02221A600A4B27
:10109C001B68064A126811461846FFF7EBFD00BFA5
:1010AC0080BD00BF000801407C00002064000020CF
:1010BC0078000020C80000205C00002080B500AF44
:1010CC00254B5B68012B44D1244B1B680133234A0D
:1010DC001360224B1B68002B31D0214B1B680F2B4C
:1010EC0013D00F2B2CDC0D2B02D00E2B1AD027E09B
:1010FC001A4B1B684FF47A7202FB03F3194A136004
:10110C00164B1B68184A13601AE0144B1B684FF4FB
:10111C007A7202FB03F3154A1360104B1B68144AD6
:10112C0013600DE00D4B1B684FF47A7202FB03F356
:10113C00104A1360094B1B680F4A136000E000BF94
:10114C00FFF774F8054B1B68632B02DD034B012280
:10115C001A6000BF80BD00BFBC000020DC00002076
:10116C00C8000020500000205C000020540000202B
:10117C0060000020580000206400002080B500AF03
:10118C00254B1B68013B244A1360244B1B68013B15
:10119C00224A1360204B1B68002B0AD101212048E6
:1011AC0000F0FFFD08211E4800F0FBFD1D4B022244
:1011BC001A601D4B1B68012B1DD11B4B00221A60A2
:1011CC001A4B0F221A60154B32221A60FEF7B8FF29
:1011DC00174B02221A6000220221114800F0C9FDAF
:1011EC00002210210E4800F0C4FD0320FFF7BAFDC9
:1011FC00104B00221A60094B1B68002B09D10B4BBA
:10120C0002221A600C4B1B689B000C4A1360FEF701
:10121C0097FF00BF80BD00BF6C000020680000205D
:10122C000008014074000020BC000020C800002011
:10123C0070000020DC0000206400002078000020FA
:10124C0080B500AF1E4B1B68013B1D4A13601D4B44
:10125C001B68013B1B4A1360194B1B68002B0AD1FE
:10126C000221194800F09DFD1021174800F099FD4E
:10127C00134B02221A60154B1B68012B1DD1134B0B
:10128C0000221A60124B0E221A600D4B28221A6093
:10129C00FEF756FF0F4B02221A60002204210A4867
:1012AC0000F067FD00222021074800F062FD0420B9
:1012BC00FFF758FD084B00221A6000BF80BD00BF2D
:1012CC00700000206800002000080140BC000020D5
:1012DC00C800002074000020DC00002080B500AFA6
:1012EC000E4B1B68013B0D4A13600D4B1B68013BF9
:1012FC000B4A1360094B1B68002B0AD104210948C7
:10130C0000F04FFD2021074800F04BFD034B02225B
:10131C001A60FFF783FC00BF80BD00BF7400002083
:10132C00680000200008014080B483B000AF0023A7
:10133C00FB715DE0FA79334913469B0013449B0023
:10134C000B441B68002B50D0FA792E4913469B0096
:10135C0013449B000B4404331B68002B32D1FA79E5
:10136C00284913469B0013449B000B440C331B78F9
:10137C00FA790133D8B2234913469B0013449B00DE
:10138C000B440C3302461A70FA791E4913469B0023
:10139C0013449B000B4408331B68002B25D0F979B0
:1013AC00FA7918480B469B000B449B000344083306
:1013BC001968144813469B0013449B0003440433E0
:1013CC00196012E0FA790F4913469B0013449B00F5
:1013DC000B4404331B68FA79591E0A4813469B00C8
:1013EC0013449B00034404331960FB790133FB71F4
:1013FC00FB79272B9ED900BF00BF0C37BD4680BCA4
:10140C00704700BF2801002080B487B000AFF8609F
:10141C00B9607A600023FB7502E0FB7D0133FB753C
:10142C00FA7D244913469B0013449B000B441B6814
:10143C00002B02D0FB7D272BEFD9FB7D282B01D174
:10144C00282331E0FA7D1B4913469B0013449B0073
:10145C000B44FA681A60FA7D164913469B00134434
:10146C009B000B440433BA681A60FA7D1149134689
:10147C009B0013449B000B4408337A681A60FA7D76
:10148C000C4913469B0013449B000B440C33002265
:10149C001A70FA7DF97D074813469B0013449B0094
:1014AC00034410331960FB7D18461C37BD4680BCC5
:1014BC00704700BF2801002080B582B000AF002328
:1014CC00FB713AE0FA79214913469B0013449B00C7
:1014DC000B440C331B78002B2CD0FA791B49134688
:1014EC009B0013449B000B441B689847FA791749DF
:1014FC0013469B0013449B000B440C331B78FA7966
:10150C00013BD8B2114913469B0013449B000B447A
:10151C000C3302461A70FA790C4913469B0013449B
:10152C009B000B4408331B68002B03D1FB79184636
:10153C0000F00EF8FB790133FB71FB79272BC1D935
:10154C0000BF00BF0837BD4680BD00BF280100208A
:10155C0080B483B000AF78601A497A6813469B0058
:10156C0013449B000B44043300221A6015497A681B
:10157C0013469B0013449B000B4400221A60114934
:10158C007A6813469B0013449B000B4408330022DB
:10159C001A600C497A6813469B0013449B000B4459
:1015AC000C3300221A7007497A6813469B001344C7
:1015BC009B000B44103300221A6000BF0C37BD4651
:1015CC0080BC70472801002080B483B000AF7860E5
:1015DC0039603B68094A82FB03129210DB17D21A5E
:1015EC0007497B6841F82320064A7B68002142F8B2
:1015FC00231000BF0C37BD4680BC7047676666661B
:10160C00700400204804002080B485B000AF154B56
:10161C009B69144A43F001039361124B9B6903F0DD
:10162C000103BB60BB680F4BDB690E4A43F0805370
:10163C00D3610C4BDB6903F080537B607B680A4BF6
:10164C005B68FB60FB6823F0E063FB60FB6843F0C6
:10165C008063FB60044AFB68536000BF1437BD46CF
:10166C0080BC7047001002400000014080B584B07F
:10167C0000AF78607B681B68B3F1804F13D10C4BC3
:10168C00DB690B4A43F00103D361094BDB6903F0BF
:10169C000103FB60FB68002200211C2000F0A1F973
:1016AC001C2000F0BAF900BF1037BD4680BD00BF4A
:1016BC000010024080B400AFFEE780B400AFFEE73C
:1016CC0080B400AFFEE780B400AFFEE780B400AF9B
:1016DC00FEE780B400AF00BFBD4680BC704780B44D
:1016EC0000AF00BFBD4680BC704780B400AF00BFE8
:1016FC00BD4680BC704780B500AF00F07FF800BFDE
:10170C0080BD000080B500AF024800F0DBFF00BFD9
:10171C0080BD00BFE000002080B400AF00BFBD461C
:10172C0080BC7047FFF7F8FF0B480C490C4A0023AC
:10173C0002E0D458C4500433C4188C42F9D3094A7B
:10174C00094C002301E013600432A242FBD301F0E8
:10175C00F9FAFEF723FE704700000020A0000020DD
:10176C00EC2D0008A00000209C040020FEE70000E7
:10177C0080B500AF084B1B68074A43F01003136099
:10178C00032000F023F90F2000F008F8FFF73CFFCE
:10179C000023184680BD00BF0020024080B582B0F7
:1017AC0000AF7860124B1A68124B1B7819464FF435
:1017BC007A73B3FBF1F3B2FBF3F3184600F03BF989
:1017CC000346002B01D001230EE07B680F2B0AD8B7
:1017DC00002279684FF0FF3000F003F9064A7B686D
:1017EC001360002300E0012318460837BD4680BD76
:1017FC00940000209C0000209800002080B400AFD2
:10180C00054B1B781A46054B1B681344034A13609F
:10181C0000BFBD4680BC70479C000020980400208F
:10182C0080B400AF024B1B681846BD4680BC7047A5
:10183C009804002080B485B000AF78607B6803F01A
:10184C000703FB600C4BDB68BB60BA684FF6FF0309
:10185C001340BB60FB681A02BB68134343F0BF63C1
:10186C0043F40033BB60044ABB68D36000BF143739
:10187C00BD4680BC704700BF00ED00E080B400AFF7
:10188C00044BDB681B0A03F007031846BD4680BCFB
:10189C00704700BF00ED00E080B483B000AF03469A
:1018AC00FB7197F90730002B0BDBFB7903F01F0260
:1018BC00064997F907305B09012000FA02F241F85A
:1018CC00232000BF0C37BD4680BC704700E100E010
:1018DC0080B483B000AF03463960FB7197F90730D1
:1018EC00002B0ADB3B68DAB20C4997F9073012017E
:1018FC00D2B20B4483F800230AE03B68DAB2084901
:10190C00FB7903F00F03043B1201D2B20B441A769D
:10191C0000BF0C37BD4680BC704700BF00E100E043
:10192C0000ED00E080B489B000AFF860B9607A6077
:10193C00FB6803F00703FB61FB69C3F10703042B8E
:10194C0028BF0423BB61FB690433062B02D9FB6956
:10195C00033B00E000237B614FF0FF32BB6902FACE
:10196C0003F3DA43BB681A407B699A404FF0FF31AE
:10197C007B6901FA03F3D9437B680B401343184688
:10198C002437BD4680BC704780B582B000AF78600C
:10199C007B68013BB3F1807F01D301230FE00A4A3E
:1019AC007B68013B53600F214FF0FF30FFF790FF36
:1019BC00054B00229A60044B07221A60002318463C
:1019CC000837BD4680BD00BF10E000E080B582B096
:1019DC0000AF78607868FFF72DFF00BF0837BD4671
:1019EC0080BD80B586B000AF0346B9607A60FB73EA
:1019FC0000237B61FFF742FF78617A68B9687869E8
:101A0C00FFF790FF024697F90F3011461846FFF783
:101A1C005FFF00BF1837BD4680BD80B582B000AFF8
:101A2C000346FB7197F907301846FFF735FF00BFE7
:101A3C000837BD4680BD80B582B000AF786078684D
:101A4C00FFF7A2FF034618460837BD4680BD0000CD
:101A5C0080B48BB000AF7860396000237B620023C8
:101A6C003B6248E101227B6A02FA03F3FB613B68AB
:101A7C001B68FA691340BB61BA69FB699A4240F072
:101A8C0037813B685B68A34A93425ED0A14A93427C
:101A9C0075D8A14A934258D09F4A93426FD89F4A17
:101AAC00934252D09D4A934269D89D4A93424CD05E
:101ABC009B4A934263D89B4A934246D0994A93429D
:101ACC005DD8122B2AD8122B59D801A252F823F028
:101ADC00571B0008311B0008431B0008851B00081E
:101AEC008B1B00088B1B00088B1B00088B1B000832
:101AFC008B1B00088B1B00088B1B00088B1B000822
:101B0C008B1B00088B1B00088B1B00088B1B000811
:101B1C008B1B0008391B00084D1B0008824A93429E
:101B2C0013D02CE03B68DB683B6229E03B68DB6848
:101B3C0004333B6224E03B68DB6808333B621FE004
:101B4C003B68DB680C333B621AE03B689B68002BFC
:101B5C0002D104233B6213E03B689B68012B05D147
:101B6C0008233B627B68FA691A6109E008233B622F
:101B7C007B68FA695A6103E000233B6200E000BF16
:101B8C00BB69FF2B01D87B6801E07B6804337B6168
:101B9C00BB69FF2B02D87B6A9B0002E07B6A083B87
:101BAC009B003B617B691A680F213B6901FA03F3C7
:101BBC00DB431A40396A3B6901FA03F31A437B6928
:101BCC001A603B685B6803F08053002B00F0908038
:101BDC00564B9B69554A43F001039361534B9B69E8
:101BEC0003F00103BB60BB68514A7B6A9B0802335C
:101BFC0052F82330FB607B6A03F003039B000F2237
:101C0C0002FA03F3DB43FA681340FB607B68494A32
:101C1C0093420DD07B68484A934207D07B68474A71
:101C2C00934201D1022304E0032302E0012300E0EC
:101C3C0000237A6A02F0030292009340FA6813437D
:101C4C00FB603B497B6A9B080233FA6841F823200E
:101C5C003B685B6803F48013002B06D0384B9A6802
:101C6C003749BB6913438B6006E0354B9A68BB69F7
:101C7C00DB43334913408B603B685B6803F4001310
:101C8C00002B06D02E4BDA682D49BB691343CB6071
:101C9C0006E02B4BDA68BB69DB4329491340CB6068
:101CAC003B685B6803F40033002B06D0244B5A6866
:101CBC002349BB6913434B6006E0214B5A68BB694F
:101CCC00DB431F4913404B603B685B6803F4803374
:101CDC00002B06D01A4B1A681949BB6913430B60C9
:101CEC0006E0174B1A68BB69DB43154913400B60C0
:101CFC007B6A01337B623B681A687B6A22FA03F3C6
:101D0C00002B7FF4AFAE00BF00BF2C37BD4680BCAC
:101D1C00704700BF0000321000003110000022108C
:101D2C0000002110000012100000111000100240E1
:101D3C000000014000080140000C0140001001406F
:101D4C000004014080B485B000AF78600B467B8006
:101D5C007B689A687B881340002B02D00123FB73AD
:101D6C0001E00023FB73FB7B18461437BD4680BC97
:101D7C00704780B483B000AF78600B467B8013460D
:101D8C007B707B78002B03D07A887B681A6103E028
:101D9C007B881A047B681A6100BF0C37BD4680BC77
:101DAC00704780B485B000AF78600B467B807B6851
:101DBC00DB68FB607A88FB6813401A04FB68D94324
:101DCC007B880B401A437B681A6100BF1437BD46F1
:101DDC0080BC704780B586B000AF78607B68002B04
:101DEC0001D101236CE27B681B6803F00103002B1B
:101DFC0000F08780924B5B6803F00C03042B0CD033
:101E0C008F4B5B6803F00C03082B12D18C4B5B6877
:101E1C0003F48033B3F5803F0BD1894B1B6803F47B
:101E2C000033002B6CD07B685B68002B68D10123DE
:101E3C0046E27B685B68B3F5803F06D1804B1B683C
:101E4C007F4A43F4803313602EE07B685B68002B81
:101E5C000CD17B4B1B687A4A23F480331360784B8C
:101E6C001B68774A23F4802313601DE07B685B6852
:101E7C00B3F5A02F0CD1724B1B68714A43F480232D
:101E8C0013606F4B1B686E4A43F4803313600BE096
:101E9C006B4B1B686A4A23F480331360684B1B68D6
:101EAC00674A23F4802313607B685B68002B13D094
:101EBC00FFF7B6FC386108E0FFF7B2FC02463B695D
:101ECC00D31A642B01D90323FAE15D4B1B6803F48D
:101EDC000033002BF0D014E0FFF7A2FC386108E0CF
:101EEC00FFF79EFC02463B69D31A642B01D90323EE
:101EFC00E6E1534B1B6803F40033002BF0D100E0F8
:101F0C0000BF7B681B6803F00203002B63D04C4BB3
:101F1C005B6803F00C03002B0BD0494B5B6803F0A0
:101F2C000C03082B1CD1464B5B6803F48033002B4D
:101F3C0016D1434B1B6803F00203002B05D07B68C2
:101F4C001B69012B01D00123BAE13D4B1B6823F027
:101F5C00F8027B685B69DB00394913430B603AE09C
:101F6C007B681B69002B20D0364B01221A60FFF7CF
:101F7C0057FC386108E0FFF753FC02463B69D31A63
:101F8C00022B01D903239BE12D4B1B6803F00203A9
:101F9C00002BF0D02A4B1B6823F0F8027B685B699E
:101FAC00DB00274913430B6015E0264B00221A6017
:101FBC00FFF736FC386108E0FFF732FC02463B695C
:101FCC00D31A022B01D903237AE11D4B1B6803F0B2
:101FDC000203002BF0D17B681B6803F00803002B75
:101FEC003AD07B689B69002B19D0174B01221A60E1
:101FFC00FFF716FC386108E0FFF712FC02463B695C
:10200C00D31A022B01D903235AE10D4B5B6A03F05F
:10201C000203002BF0D0012000F09AFA1CE00A4BCE
:10202C0000221A60FFF7FCFB38610FE0FFF7F8FBAA
:10203C0002463B69D31A022B08D9032340E100BFA7
:10204C000010024000004242800442429E4B5B6AF8
:10205C0003F00203002BE9D17B681B6803F0040337
:10206C00002B00F0A6800023FB75974BDB6903F077
:10207C008053002B0DD1944BDB69934A43F0805372
:10208C00D361914BDB6903F08053BB60BB680123C8
:10209C00FB758E4B1B6803F48073002B18D18B4B94
:1020AC001B688A4A43F480731360FFF7B9FB3861ED
:1020BC0008E0FFF7B5FB02463B69D31A642B01D944
:1020CC000323FDE0814B1B6803F48073002BF0D0DD
:1020DC007B68DB68012B06D17B4B1B6A7A4A43F089
:1020EC00010313622DE07B68DB68002B0CD1764B6F
:1020FC001B6A754A23F001031362734B1B6A724A05
:10210C0023F0040313621CE07B68DB68052B0CD105
:10211C006D4B1B6A6C4A43F0040313626A4B1B6AD7
:10212C00694A43F0010313620BE0674B1B6A664A72
:10213C0023F001031362644B1B6A634A23F004030C
:10214C0013627B68DB68002B15D0FFF769FB3861E5
:10215C000AE0FFF765FB02463B69D31A41F288326D
:10216C00934201D90323ABE0574B1B6A03F00203E4
:10217C00002BEED014E0FFF753FB38610AE0FFF7B9
:10218C004FFB02463B69D31A41F28832934201D984
:10219C00032395E04C4B1B6A03F00203002BEED19A
:1021AC00FB7D012B05D1484BDB69474A23F080535B
:1021BC00D3617B68DB69002B00F08180424B5B684C
:1021CC0003F00C03082B61D07B68DB69022B46D132
:1021DC003F4B00221A60FFF723FB386108E0FFF742
:1021EC001FFB02463B69D31A022B01D9032367E07C
:1021FC00354B1B6803F00073002BF0D17B681B6A16
:10220C00B3F5803F08D1304B5B6823F400327B6818
:10221C009B682D4913434B602B4B5B6823F4741262
:10222C007B68196A7B685B6A0B43274913434B60D5
:10223C00274B01221A60FFF7F3FA386108E0FFF729
:10224C00EFFA02463B69D31A022B01D9032337E07C
:10225C001D4B1B6803F00073002BF0D02FE01C4BC0
:10226C0000221A60FFF7DCFA386108E0FFF7D8FAB1
:10227C0002463B69D31A022B01D9032320E0124BEF
:10228C001B6803F00073002BF0D118E07B68DB694E
:10229C00012B01D1012313E00B4B5B68FB60FB6846
:1022AC0003F480327B681B6A9A4206D1FB6803F404
:1022BC0070127B685B6A9A4201D0012300E0002314
:1022CC0018461837BD4680BD001002400070004013
:1022DC006000424280B584B000AF786039607B68A2
:1022EC00002B01D10123D0E06A4B1B6803F00703DC
:1022FC003A689A4210D9674B1B6823F0070265496C
:10230C003B6813430B60634B1B6803F007033A688D
:10231C009A4201D00123B8E07B681B6803F00203EA
:10232C00002B20D07B681B6803F00403002B05D026
:10233C00594B5B68584A43F4E06353607B681B68F5
:10234C0003F00803002B05D0534B5B68524A43F44F
:10235C0060535360504B5B6823F0F0027B689B68C2
:10236C004D4913434B607B681B6803F00103002B42
:10237C0040D07B685B68012B07D1474B1B6803F48B
:10238C000033002B15D101237FE07B685B68022BA7
:10239C0007D1414B1B6803F00073002B09D10123BB
:1023AC0073E03D4B1B6803F00203002B01D10123AA
:1023BC006BE0394B5B6823F003027B685B68364942
:1023CC0013434B60FFF72CFAF8600AE0FFF728FA8A
:1023DC000246FB68D31A41F28832934201D9032397
:1023EC0053E02D4B5B6803F00C027B685B689B0031
:1023FC009A42EBD1274B1B6803F007033A689A42C9
:10240C0010D2244B1B6823F0070222493B6813436C
:10241C000B60204B1B6803F007033A689A4201D00B
:10242C00012332E07B681B6803F00403002B08D007
:10243C00194B5B6823F4E0627B68DB681649134335
:10244C004B607B681B6803F00803002B09D0124B10
:10245C005B6823F460527B681B69DB000E491343F5
:10246C004B6000F021F802460B4B5B681B0903F034
:10247C000F030A49CB5C22FA03F3094A1360094B98
:10248C001B681846FFF78AF9002318461037BD461B
:10249C0080BD00BF0020024000100240C02D00088B
:1024AC00940000209800002080B487B000AF002377
:1024BC00FB600023BB6000237B6100237B60002357
:1024CC003B611E4B5B68FB60FB6803F00C03042B49
:1024DC0002D0082B03D027E0194B3B6127E0FB68A7
:1024EC009B0C03F00F03174AD35C7B60FB6803F46F
:1024FC008033002B10D0114B5B685B0C03F0010395
:10250C00114AD35CBB607B680D4A02FB03F2BB68CB
:10251C00B2FBF3F37B6104E07B680C4A02FB03F330
:10252C007B617B693B6102E0054B3B6100BF3B6912
:10253C0018461C37BD4680BC704700BF00100240D7
:10254C0000127A00D02D0008E02D000800093D0093
:10255C0080B485B000AF78600A4B1B680A4AA2FBB6
:10256C0003235B0A7A6802FB03F3FB6000BFFB6882
:10257C005A1EFA60002BF9D100BF00BF1437BD46BC
:10258C0080BC704794000020D34D621080B582B09F
:10259C0000AF78607B68002B01D1012341E07B68A0
:1025AC0093F83D30DBB2002B06D17B68002283F818
:1025BC003C207868FFF75AF87B68022283F83D20AC
:1025CC007B681A687B6804331946104600F056FA8B
:1025DC007B68012283F846207B68012283F83E2029
:1025EC007B68012283F83F207B68012283F840201E
:1025FC007B68012283F841207B68012283F842200A
:10260C007B68012283F843207B68012283F84420F5
:10261C007B68012283F845207B68012283F83D20EA
:10262C00002318460837BD4680BD000080B485B035
:10263C0000AF78607B6893F83D30DBB2012B01D0A2
:10264C00012335E07B68022283F83D207B681B6800
:10265C00DA687B681B6842F00102DA607B681B68F1
:10266C00164A934209D07B681B68B3F1804F04D0A3
:10267C007B681B68124A934211D17B681B689B686C
:10268C0003F00703FB60FB68062B10D07B681B680C
:10269C001A687B681B6842F001021A6007E07B68CD
:1026AC001B681A687B681B6842F001021A600023E1
:1026BC0018461437BD4680BC704700BF002C014043
:1026CC000004004080B584B000AF78607B681B6864
:1026DC00DB68FB607B681B681B69BB60BB6803F035
:1026EC000203002B20D0FB6803F00203002B1BD04D
:1026FC007B681B686FF002021A617B6801221A77F3
:10270C007B681B689B6903F00303002B03D078687C
:10271C0000F098F905E0786800F08BF9786800F023
:10272C009AF97B6800221A77BB6803F00403002B2C
:10273C0020D0FB6803F00403002B1BD07B681B68C4
:10274C006FF004021A617B6802221A777B681B689F
:10275C009B6903F44073002B03D0786800F072F986
:10276C0005E0786800F065F9786800F074F97B682A
:10277C0000221A77BB6803F00803002B20D0FB68FB
:10278C0003F00803002B1BD07B681B686FF008025A
:10279C001A617B6804221A777B681B68DB6903F07B
:1027AC000303002B03D0786800F04CF905E078683F
:1027BC0000F03FF9786800F04EF97B6800221A7738
:1027CC00BB6803F01003002B20D0FB6803F0100350
:1027DC00002B1BD07B681B686FF010021A617B68A2
:1027EC0008221A777B681B68DB6903F44073002BA3
:1027FC0003D0786800F026F905E0786800F019F944
:10280C00786800F028F97B6800221A77BB6803F01F
:10281C000103002B0CD0FB6803F00103002B07D045
:10282C007B681B686FF001021A617868FDF704FF82
:10283C00BB6803F08003002B0CD0FB6803F0800313
:10284C00002B07D07B681B686FF080021A617868D8
:10285C0000F06FFABB6803F04003002B0CD0FB6850
:10286C0003F04003002B07D07B681B686FF040021D
:10287C001A61786800F0F8F8BB6803F02003002BAD
:10288C000CD0FB6803F02003002B07D07B681B687F
:10289C006FF020021A61786800F042FA00BF10371E
:1028AC00BD4680BD80B584B000AF78603960002330
:1028BC00FB737B6893F83C30012B01D10223B4E00D
:1028CC007B68012283F83C207B68022283F83D2040
:1028DC007B681B689B68BB60BB6823F07703BB609D
:1028EC00BB6823F47F43BB607B681B68BA689A6043
:1028FC003B681B68B3F5005F3ED0B3F5005F00F298
:10290C008780B3F5805F00F08680B3F5805F7FD859
:10291C00702B1AD0702B7BD8602B50D0602B77D8B3
:10292C00502B3CD0502B73D8402B58D0402B6FD809
:10293C00302B64D0302B6BD8202B60D0202B67D859
:10294C00002B5CD0102B5AD062E07B6818683B6877
:10295C0099683B685A683B68DB6800F06AF97B68E9
:10296C001B689B68BB60BB6843F07703BB607B68EC
:10297C001B68BA689A604FE07B6818683B68996876
:10298C003B685A683B68DB6800F053F97B681B684E
:10299C009A687B681B6842F480429A603CE07B68D2
:1029AC0018683B6859683B68DB681A4600F0CAF83F
:1029BC007B681B685021184600F021F92CE07B68DD
:1029CC0018683B6859683B68DB681A4600F0E8F801
:1029DC007B681B686021184600F011F91CE07B68CD
:1029EC0018683B6859683B68DB681A4600F0AAF81F
:1029FC007B681B684021184600F001F90CE07B68ED
:102A0C001A683B681B681946104600F0F8F803E09A
:102A1C000123FB7300E000BF7B68012283F83D209B
:102A2C007B68002283F83C20FB7B18461037BD46A0
:102A3C0080BD80B483B000AF786000BF0C37BD465A
:102A4C0080BC704780B483B000AF786000BF0C3797
:102A5C00BD4680BC704780B483B000AF786000BFC7
:102A6C000C37BD4680BC704780B483B000AF786033
:102A7C0000BF0C37BD4680BC7047000080B485B0E9
:102A8C0000AF786039607B681B68FB607B682B4A01
:102A9C00934207D07B68B3F1804F03D07B68284A00
:102AAC00934208D1FB6823F07003FB603B685B68C2
:102ABC00FA681343FB607B68204A934207D07B681B
:102ACC00B3F1804F03D07B681D4A934208D1FB6859
:102ADC0023F44073FB603B68DB68FA681343FB60CC
:102AEC00FB6823F080023B685B691343FB607B68E7
:102AFC00FA681A603B689A687B68DA623B681A6805
:102B0C007B689A627B680D4A934203D13B681A69D1
:102B1C007B681A637B6801225A617B681B6903F02E
:102B2C000103002B05D07B681B6923F001027B6835
:102B3C001A6100BF1437BD4680BC7047002C0140A1
:102B4C000004004080B487B000AFF860B9607A60D0
:102B5C00FB681B6A7B61FB681B6A23F00102FB6844
:102B6C001A62FB689B693B613B6923F0F0033B6194
:102B7C007B681B013A6913433B617B6923F00A03B1
:102B8C007B617A69BB6813437B61FB683A699A6124
:102B9C00FB687A691A6200BF1C37BD4680BC70475F
:102BAC0080B487B000AFF860B9607A60FB681B6ACC
:102BBC007B61FB681B6A23F01002FB681A62FB68DE
:102BCC009B693B613B6923F470433B617B681B034E
:102BDC003A6913433B617B6923F0A0037B61BB68BB
:102BEC001B017A6913437B61FB683A699A61FB6844
:102BFC007A691A6200BF1C37BD4680BC704780B42E
:102C0C0085B000AF786039607B689B68FB60FB68BF
:102C1C0023F07003FB603A68FB68134343F007032F
:102C2C00FB607B68FA689A6000BF1437BD4680BCB5
:102C3C00704780B487B000AFF860B9607A603B60D1
:102C4C00FB689B687B617B6923F47F437B613B68FA
:102C5C001A027B681A43BB6813437A6913437B617E
:102C6C00FB687A699A6000BF1C37BD4680BC704710
:102C7C0080B485B000AF786039607B6893F83C30E5
:102C8C00012B01D1022341E07B68012283F83C2017
:102C9C007B68022283F83D207B681B685B68FB60C5
:102CAC007B681B689B68BB60FB6823F07003FB6050
:102CBC003B681B68FA681343FB607B681B68FA6807
:102CCC005A607B681B68144A934209D07B681B6866
:102CDC00B3F1804F04D07B681B68104A93420CD12F
:102CEC00BB6823F08003BB603B685B68BA68134326
:102CFC00BB607B681B68BA689A607B68012283F8AA
:102D0C003D207B68002283F83C20002318461437B2
:102D1C00BD4680BC704700BF002C01400004004041
:102D2C0080B483B000AF786000BF0C37BD4680BC68
:102D3C00704780B483B000AF786000BF0C37BD46DD
:102D4C0080BC704770B500260C4D0D4C641BA41054
:102D5C00A64209D100F022F800260A4D0A4C641B49
:102D6C00A410A64205D170BD55F8043B9847013616
:102D7C00EEE755F8043B98470136F2E7E42D0008DE
:102D8C00E42D0008E42D0008E82D00080346024459
:102D9C00934200D1704703F8011BF9E7F8B500BF67
:102DAC00F8BC08BC9E467047F8B500BFF8BC08BC20
:042DBC009E46704778
:102DC00000000000000000000102030406070809DB
:102DD00002030405060708090A0B0C0D0E0F10105C
:042DE00001020000EC
:042DE40031010008B1
:042DE8000D010008D1
:102DEC0001000000000000000000000001000000D5
:102DFC0000000000000000000100000000000000C6
:102E0C0000000000010000000000000000000000B5
:102E1C00C80000000000000000000000001001408D
:102E2C0000100140000C0140002000400008000090
:102E3C0088130000B80B0000D0070000050000004C
:102E4C00030000000200000010270000F401000045
:102E5C00F4010000F4010000080000000C00000068
:102E6C00010000000100000001000000050000004E
:102E7C000400000000127A001000000001000000A5
:0400000508001731A7
:00000001FF
