:020000040800F2
:10000000002800203D150008CD140008D314000876
:10001000D9140008DF140008E514000800000000EF
:10002000000000000000000000000000EB140008C9
:10003000F714000800000000031500080F15000861
:100040008515000885150008851500088515000828
:100050008515000885150008851500088515000818
:100060008515000885150008851500088515000808
:1000700085150008851500088515000885150008F8
:1000800085150008851500088515000885150008E8
:1000900085150008851500088515000885150008D8
:1000A00085150008851500088515000885150008C8
:1000B0001D150008851500080000000085150008C2
:1000C00085150008000000000000000085150008EC
:1000D00000000000851500088515000800000000DC
:1000E000851500088515000885150008000000002A
:1000F0000000000000000000000000000000000000
:0C01000000000000000000005FF808F1A3
:10010C0010B5054C237833B9044B13B10448AFF345
:10011C0000800123237010BD94000020000000001B
:10012C00B42B000808B5034B1BB103490348AFF3CC
:10013C00008008BD0000000098000020B42B0008CF
:10014C0080B500AF012201210E4801F018FD0122FB
:10015C0002210C4801F013FD01220421094801F091
:10016C000EFD01222021074801F009FD012210217A
:10017C00044801F004FD01220821024801F0FFFCB3
:10018C0000BF80BD0008014080B500AF1B4B1B6851
:10019C00013B042B2FD801A252F823F0BD0100081B
:1001AC00EB010008F1010008F7010008FD0100084F
:1001BC00FFF7C6FF124B1B681946002001F0C0F870
:1001CC000E4B02221A600F4B13221A600E4B1B6847
:1001DC000E4A12681146184600F04CFD0CE000F077
:1001EC001FFE09E000F092FE06E000F0D3FE03E0F3
:1001FC0000F012FF00E000BF00BF80BDBC0000207B
:10020C0058000020800000205C00002064000020CA
:10021C0080B483B000AF7860044A7B68012142F857
:10022C00231000BF0C37BD4680BC7047B0000020C7
:10023C0080B400AF064B00221A60054B00225A60B6
:10024C00034B00229A6000BFBD4680BC704700BFC4
:10025C00B000002080B582B000AF00237B6012E0BC
:10026C00484A7B6852F8232047497B6841F8232091
:10027C00464A7B6852F8232042497B6841F8232088
:10028C007B6801337B607B68022BE9DD404B1B688C
:10029C00404A12881146184601F05AFC03461A4689
:1002AC003A4B1A603A4B5B683A4A528811461846E8
:1002BC0001F04EFC03461A46344B5A60344B9B6893
:1002CC00344A92881146184601F042FC03461A46FD
:1002DC002E4B9A6000233B604BE02B4A3B6852F854
:1002EC00232028493B6851F823309A423ED1254AB5
:1002FC003B6852F8232025493B6851F823309A4239
:10030C0034D1254A3B6852F8232020493B6851F8E8
:10031C0023309A4216D01D4A3B6852F823201E49BE
:10032C003B6841F82320194A3B6852F82330002BD4
:10033C001CD11A4A3B68C82142F823103868FFF7D1
:10034C0067FF13E0154A3B6852F823305A1E1349D5
:10035C003B6841F82320114A3B6852F82330002BAC
:10036C0004D10D4A3B68012142F823103B6801334C
:10037C003B603B68022BB0DD00BF00BF0837BD46B9
:10038C0080BD00BF0C0000200000002018000020E1
:10039C003C000020480000202400002030000020F9
:1003AC0080B500AF01F0EAF800F020F800F0A6F8F4
:1003BC0000F058F80B4802F03FF80B4B01221A6082
:1003CC00FA21022000F0BCFF4FF47A71042000F0F7
:1003DC00B7FFFFF7D9FE00F01FF900F039F900F074
:1003EC00FBFBF6E7D4000020BC00002080B590B0E9
:1003FC0000AF07F1180328220021184602F0CCFBAD
:10040C003B1D00221A605A609A60DA601A6102235E
:10041C00BB610123BB621023FB6200237B6307F1EA
:10042C001803184601F0DCFB0346002B01D000F04A
:10043C00EDF80F237B600023BB600023FB600023DF
:10044C003B6100237B613B1D0021184601F048FEF7
:10045C000346002B01D000F0D9F800BF4037BD4651
:10046C0080BD000080B586B000AF07F10803002204
:10047C001A605A609A60DA603B4600221A605A6031
:10048C001D4B4FF080421A601B4B41F63F725A6075
:10049C00194B00229A60184B0922DA60164B002285
:1004AC001A61154B00229A61134801F075FF03463F
:1004BC00002B01D000F0AAF84FF48053BB6007F179
:1004CC00080319460C4802F0F3F80346002B01D040
:1004DC0000F09CF800233B6000237B603B461946F0
:1004EC00054802F0CBFA0346002B01D000F08EF841
:1004FC0000BF1837BD4680BDD400002080B588B041
:10050C0000AF07F1100300221A605A609A60DA609B
:10051C00344B9B69334A43F010039361314B9B6915
:10052C0003F01003FB60FB682E4B9B692D4A43F0D4
:10053C00040393612B4B9B6903F00403BB60BB6802
:10054C00284B9B69274A43F008039361254B9B6911
:10055C0003F008037B607B68002247F6BF712248DA
:10056C0001F00DFB00220F21204801F008FB4FF495
:10057C00C0433B6100237B610123BB6107F1100386
:10058C0019461B4801F06AF947F6BF733B6101231A
:10059C007B610023BB610223FB6107F11003194649
:1005AC00114801F05BF90F233B6101237B610023B0
:1005BC00BB610223FB6107F1100319460B4801F0E4
:1005CC004DF94FF400633B6100237B610123BB6158
:1005DC0007F110031946054801F040F900BF203718
:1005EC00BD4680BD0010024000080140000C0140D7
:1005FC000010014080B582B000AF786000F0C0FE02
:10060C00FFF728FE00BF0837BD4680BD80B400AFA1
:10061C0072B600BFFEE7000080B500AF0B4B1B6845
:10062C000F2B09D00F2B0DDC0D2B02D00E2B06D06F
:10063C0008E000F095FD06E000F0F6FD03E000F0A8
:10064C0043FE00E000BF00BF80BD00BFBC00002027
:10065C0080B500AF0C4B1B68132B02D0142B03D0AE
:10066C000FE000F045FB0CE0084B1B68184600F04F
:10067C0075FB00F015FD064B1B68184600F0A6FB39
:10068C0000BF00BF80BD00BF800000207C000020A8
:10069C00D000002080B582B000AF78607B68092B59
:1006AC0000F2C88101A252F823F000BFE106000855
:1006BC00370700088D070008E30700083908000811
:1006CC008F080008E50800083B090008910900089C
:1006DC00E709000800224FF48071D54801F04FFA69
:1006EC0000224FF40071D24801F049FA00224FF475
:1006FC008061CF4801F043FA00224FF40061CC48EE
:10070C0001F03DFA00224FF48051C94801F037FA4C
:10071C0000224FF40051C64801F031FA01224FF487
:10072C008041C34801F02BFA87E101224FF480711C
:10073C00BF4801F024FA00224FF40071BC4801F0CC
:10074C001EFA00224FF48061B94801F018FA012218
:10075C004FF40061B64801F012FA01224FF48051B7
:10076C00B34801F00CFA01224FF40051B04801F0EB
:10077C0006FA01224FF48041AD4801F000FA5CE129
:10078C0000224FF48071AA4801F0F9F900224FF4CD
:10079C000071A74801F0F3F901224FF48061A448DD
:1007AC0001F0EDF900224FF40061A14801F0E7F9E6
:1007BC0000224FF480519E4801F0E1F901224FF4E0
:1007CC0000519B4801F0DBF900224FF4804198481E
:1007DC0001F0D5F931E100224FF48071944801F019
:1007EC00CEF900224FF40071914801F0C8F90022B3
:1007FC004FF480618E4801F0C2F900224FF4006181
:10080C008B4801F0BCF901224FF48051884801F06B
:10081C00B6F901224FF40051854801F0B0F90022DD
:10082C004FF48041824801F0AAF906E101224FF40D
:10083C0080717F4801F0A3F900224FF400717C48CD
:10084C0001F09DF900224FF48061794801F097F98D
:10085C0001224FF40061764801F091F901224FF426
:10086C008051734801F08BF900224FF4005170480D
:10087C0001F085F900224FF480416D4801F07FF9B9
:10088C00DBE000224FF48071694801F078F9012215
:10089C004FF40071664801F072F900224FF4806148
:1008AC00634801F06CF900224FF40061604801F0DC
:1008BC0066F901224FF480515D4801F060F9002285
:1008CC004FF400515A4801F05AF900224FF480417C
:1008DC00574801F054F9B0E000224FF480715448AD
:1008EC0001F04DF901224FF40071514801F047F924
:1008FC0000224FF480614E4801F041F900224FF480
:10090C0000614B4801F03BF900224FF480514848FC
:10091C0001F035F900224FF40051454801F02FF950
:10092C0000224FF48041424801F029F985E0002271
:10093C004FF480713E4801F022F900224FF400710F
:10094C003B4801F01CF900224FF48061384801F05B
:10095C0016F901224FF40061354801F010F901221B
:10096C004FF48051324801F00AF901224FF4005142
:10097C002F4801F004F901224FF480412C4801F07A
:10098C00FEF85AE000224FF48071294801F0F7F884
:10099C0000224FF40071264801F0F1F800224FF4C8
:1009AC008061234801F0EBF800224FF400612048ED
:1009BC0001F0E5F800224FF480511D4801F0DFF8FA
:1009CC0000224FF400511A4801F0D9F800224FF4DC
:1009DC008041174801F0D3F82FE000224FF48071CA
:1009EC00134801F0CCF800224FF40071104801F0CC
:1009FC00C6F800224FF480610D4801F0C0F80022C7
:100A0C004FF400610A4801F0BAF801224FF480510A
:100A1C00074801F0B4F800224FF40051044801F0EB
:100A2C00AEF800224FF48041014801F0A8F804E030
:100A3C000008014000237B6000BF00BF0837BD46A3
:100A4C0080BD00BF80B500AF01224FF48071144807
:100A5C0001F095F801224FF40071114801F08FF864
:100A6C0001224FF480610E4801F089F801224FF405
:100A7C0000610B4801F083F801224FF480510848C3
:100A8C0001F07DF801224FF40051054801F077F890
:100A9C0001224FF48041024801F071F800BF80BD83
:100AAC000008014080B400AF074B00221A60064BCF
:100ABC0000225A60044B00229A60034B0022DA6039
:100ACC0000BFBD4680BC7047C000002080B582B01E
:100ADC0000AF78607B68013B032B73D801A252F8FE
:100AEC0023F000BF010B0008350B0008690B000850
:100AFC009D0B0008364B1B681846FFF7CBFD0022F8
:100B0C000121344801F03BF801220221314801F067
:100B1C0036F8012204212F4801F031F80122082176
:100B2C002C4801F02CF84EE0294B5B681846FFF777
:100B3C00B1FD01220121274801F021F800220221F8
:100B4C00244801F01CF801220421224801F017F876
:100B5C00012208211F4801F012F834E01C4B9B685D
:100B6C001846FFF797FD012201211A4801F007F8FA
:100B7C0001220221174801F002F800220421154835
:100B8C0000F0FDFF01220821124800F0F8FF1AE0E6
:100B9C000F4BDB681846FFF77DFD012201210D4844
:100BAC0000F0EDFF012202210A4800F0E8FF0122CB
:100BBC000421084800F0E3FF00220821054800F05A
:100BCC00DEFF00E000BF00BF0837BD4680BD00BFA0
:100BDC00C0000020000C014080B500AF022000F0E6
:100BEC00FFFB0346012B18D1FFF72CFF0C4B1B68A6
:100BFC001846FFF76BFF0A4B1B680133084A13605A
:100C0C00084B1B681946022000F09AFB044B1B682A
:100C1C00042B02DD024B00221A6000BF80BD00BF16
:100C2C00840000207800002080B500AF0C4B9B683E
:100C3C00012B12D1FFF7FCFA0A4B1B681946002056
:100C4C0000F07EFB084B02221A60084B1B68084A16
:100C5C0012681146184600F00DF800BF80BD00BFA9
:100C6C00B000002058000020BC0000205C000020D8
:100C7C006400002080B582B000AF78603960FFF767
:100C8C0011FF7B68184A82FB03129210DB17D31AF0
:100C9C00164A13607968144B83FB01239A10CB1707
:100CAC00D21A13469B0013445B00CA1A0F4B5A60AE
:100CBC003B680D4A82FB03129210DB17D31A0B4AC6
:100CCC0093603968084B83FB01239A10CB17D21A17
:100CDC0013469B0013445B00CA1A044BDA6000BF36
:100CEC000837BD4680BD00BF67666666C000002041
:100CFC0080B500AF042000F073FB0346012B28D114
:100D0C00154B1B68002B04D0134B1B68013B124A7C
:100D1C001360114B5B68002B04D00F4B5B68013BDD
:100D2C000D4A53600C4B9B68002B04D00A4B9B68FC
:100D3C00013B094A9360084BDB68002B04D0064B3F
:100D4C00DB68013B044AD3604FF47A71042000F055
:100D5C00F7FA00BF80BD00BFC000002080B483B094
:100D6C0000AF7860164A7B681360164B00221A603D
:100D7C00144B00225A60134B00229A60114B002234
:100D8C00DA600F4B1B68104A82FB03129210DB17C0
:100D9C00D31A0C4A13600A4B19680B4B83FB0123C3
:100DAC009A10CB17D21A13469B0013445B00CA1A35
:100DBC00044B5A6000BF0C37BD4680BC704700BF67
:100DCC007C000020C00000206766666680B483B09B
:100DDC0000AF7860104B00229A600F4B0022DA6053
:100DEC007B680E4A82FB03129210DB17D31A0A4A55
:100DFC0093607968094B83FB01239A10CB17D21AA5
:100E0C0013469B0013445B00CA1A034BDA6000BF05
:100E1C000C37BD4680BC7047C00000206766666614
:100E2C0080B500AF002201212F4800F0A8FE01225E
:100E3C0002212D4800F0A3FE012204212A4800F0D3
:100E4C009EFE00222021284800F099FE012210214C
:100E5C00254800F094FE01220821234800F08FFE63
:100E6C00002000F0BDFA0346012B10D11F4B1B686C
:100E7C001946002000F064FA1D4B03221A601D4B2A
:100E8C001B681C4A126811461846FFF7F3FE1A4BF2
:100E9C001B68012B25D1164B0D221A60FFF750F958
:100EAC00164B1B681946002000F04AFA144B1B68BD
:100EBC001946012000F044FAFFF7BAF9002201218B
:100ECC00094800F05CFE00220821074800F057FE9C
:100EDC000C4B14221A600220FFF740FF0A4B002231
:100EEC001A6000BF80BD00BF000801405400002004
:100EFC00BC00002060000020B00000206800002032
:100F0C006C00002080000020D000002080B500AFD5
:100F1C00002201211A4800F032FE01220221184859
:100F2C0000F02DFE01220421154800F028FE0122BC
:100F3C002021134800F023FE00221021104800F05D
:100F4C001EFE012208210E4800F019FE002000F0C0
:100F5C0047FA0346012B10D10A4B1B681946002097
:100F6C0000F0EEF9084B04221A60084B1B68084A83
:100F7C00126811461846FFF77DFE00BF80BD00BF0A
:100F8C000008014058000020BC0000206400002034
:100F9C005C00002080B500AF012201211A4800F04E
:100FAC00EEFD01220221184800F0E9FD0022042187
:100FBC00154800F0E4FD01222021134800F0DFFD6C
:100FCC0001221021104800F0DAFD002208210E4801
:100FDC0000F0D5FD002000F003FA0346012B10D1E0
:100FEC000A4B1B68094A126811461846FFF742FE65
:100FFC00074B1B681946002000F0A2F9054B05228F
:10100C001A6000BF80BD00BF0008014060000020D6
:10101C0054000020BC00002080B500AF012201214B
:10102C001A4800F0ACFD00220221184800F0A7FD80
:10103C0001220421154800F0A2FD012220211348B1
:10104C0000F09DFD01221021104800F098FD0022B7
:10105C0008210E4800F093FD002000F0C1F9034672
:10106C00012B10D10A4B1B681946002000F068F9BF
:10107C00084B02221A60084B1B68084A126811467A
:10108C001846FFF7F7FD00BF80BD00BF0008014008
:10109C0058000020BC0000205C00002064000020F0
:1010AC0080B500AF254B5B68012B44D1244B1B68EA
:1010BC000133234A1360224B1B68002B31D0214B88
:1010CC001B680F2B13D00F2B2CDC0D2B02D00E2BEF
:1010DC001AD027E01A4B1B684FF47A7202FB03F309
:1010EC00194A1360164B1B68184A13601AE0144B0C
:1010FC001B684FF47A7202FB03F3154A1360104B12
:10110C001B68144A13600DE00D4B1B684FF47A7288
:10111C0002FB03F3104A1360094B1B680F4A136060
:10112C0000E000BFFFF784F8054B1B68632B02DD62
:10113C00034B01221A6000BF80BD00BFB00000202D
:10114C00D0000020BC000020500000205C000020DB
:10115C005400002060000020580000206400002093
:10116C0080B500AF012000F03BF90346012B0DD1F7
:10117C000121254800F01BFD0821234800F017FD34
:10118C00224B1B681946012000F0DAF8204B1B6833
:10119C00012B23D11E4B00221A601E4B0F221A600A
:1011AC001D4B1B681946002000F0CAF8FEF7C8FF5B
:1011BC001A4B1B681946012000F0C2F800220221CC
:1011CC00114800F0DCFC002210210F4800F0D7FC85
:1011DC000320FFF7C3FD124B00221A60002000F021
:1011EC00FFF80346012B0AD10A4B02221A600D4B61
:1011FC001B681946002000F0A3F8FEF7A1FFFFF7CB
:10120C0013FD00BF80BD00BF000801406C00002032
:10121C00B0000020BC0000206800002070000020FE
:10122C00D00000205800002080B500AF012000F055
:10123C00D7F80346012B0DD102211C4800F0B7FC56
:10124C0010211A4800F0B3FC194B1B6819460120F9
:10125C0000F076F8174B1B68012B23D1154B00229D
:10126C001A60154B0E221A60144B1B68194600208D
:10127C0000F066F8FEF764FF114B1B68194601205D
:10128C0000F05EF800220421084800F078FC0022EF
:10129C002021064800F073FC0420FFF75FFD094B8A
:1012AC0000221A60FFF7C0FC00BF80BD000801409F
:1012BC0070000020B0000020BC000020680000205E
:1012CC0074000020D000002080B500AF012000F099
:1012DC0087F80346012B0DD10421134800F067FC5D
:1012EC002021114800F063FC104B1B6819460120AB
:1012FC0000F026F80E4B1B68012B10D10C4B002272
:10130C001A600C4B02221A600B4B1B68194600200A
:10131C0000F016F8FEF714FF084B13221A60FFF7C3
:10132C0083FC00BF80BD00BF00080140740000209A
:10133C00B0000020BC0000205800002080000020DD
:10134C0080B483B000AF786039603B68094A82FB97
:10135C0003129210DB17D21A07497B6841F823203D
:10136C00064A7B68002142F8231000BF0C37BD46AB
:10137C0080BC704767666666440100201C01002033
:10138C0080B483B000AF00237B601CE0124A7B6802
:10139C0052F82330002B08DD0F4A7B6852F82330BB
:1013AC005A1E0D497B6841F823200B4A7B6852F882
:1013BC002330002B04DC094A7B68012142F82310FE
:1013CC007B6801337B607B68092BDFDD00BF00BFCE
:1013DC000C37BD4680BC7047440100201C01002026
:1013EC0080B483B000AF7860094A7B6852F8233030
:1013FC00012B06D1064A7B68002142F823100123F9
:10140C0000E0002318460C37BD4680BC704700BF77
:10141C001C01002080B485B000AF154B9B69144AA9
:10142C0043F001039361124B9B6903F00103BB6012
:10143C00BB680F4BDB690E4A43F08053D3610C4BF6
:10144C00DB6903F080537B607B680A4B5B68FB6055
:10145C00FB6823F0E063FB60FB6843F08063FB6098
:10146C00044AFB68536000BF1437BD4680BC70470C
:10147C00001002400000014080B584B000AF7860DD
:10148C007B681B68B3F1804F13D10C4BDB690B4AA3
:10149C0043F00103D361094BDB6903F00103FB60EB
:1014AC00FB68002200211C2000F0A1F91C2000F098
:1014BC00BAF900BF1037BD4680BD00BF0010024016
:1014CC0080B400AFFEE780B400AFFEE780B400AF9D
:1014DC00FEE780B400AFFEE780B400AFFEE780B457
:1014EC0000AF00BFBD4680BC704780B400AF00BFEA
:1014FC00BD4680BC704780B400AF00BFBD4680BC09
:10150C00704780B500AF00F07FF800BF80BD0000D1
:10151C0080B500AF024800F0DBFF00BF80BD00BF0C
:10152C00D400002080B400AF00BFBD4680BC704723
:10153C00FFF7F8FF0B480C490C4A002302E0D45883
:10154C00C4500433C4188C42F9D3094A094C002303
:10155C0001E013600432A242FBD301F0F9FAFEF76A
:10156C001FFF70470000002094000020F82B00089B
:10157C009400002070010020FEE7000080B500AF51
:10158C00084B1B68074A43F010031360032000F05C
:10159C0023F90F2000F008F8FFF73CFF0023184652
:1015AC0080BD00BF0020024080B582B000AF7860E3
:1015BC00124B1A68124B1B7819464FF47A73B3FB13
:1015CC00F1F3B2FBF3F3184600F03BF90346002BA2
:1015DC0001D001230EE07B680F2B0AD8002279681A
:1015EC004FF0FF3000F003F9064A7B6813600023CC
:1015FC0000E0012318460837BD4680BD8800002056
:10160C00900000208C00002080B400AF054B1B78AC
:10161C001A46054B1B681344034A136000BFBD46B2
:10162C0080BC7047900000206C01002080B400AF9B
:10163C00024B1B681846BD4680BC70476C010020ED
:10164C0080B485B000AF78607B6803F00703FB6063
:10165C000C4BDB68BB60BA684FF6FF031340BB60F2
:10166C00FB681A02BB68134343F0BF6343F40033B7
:10167C00BB60044ABB68D36000BF1437BD4680BC56
:10168C00704700BF00ED00E080B400AF044BDB6896
:10169C001B0A03F007031846BD4680BC704700BF09
:1016AC0000ED00E080B483B000AF0346FB7197F906
:1016BC000730002B0BDBFB7903F01F02064997F96F
:1016CC0007305B09012000FA02F241F8232000BF29
:1016DC000C37BD4680BC704700E100E080B483B09D
:1016EC0000AF03463960FB7197F90730002B0ADB1A
:1016FC003B68DAB20C4997F907301201D2B20B44AD
:10170C0083F800230AE03B68DAB20849FB7903F05E
:10171C000F03043B1201D2B20B441A7600BF0C37F4
:10172C00BD4680BC704700BF00E100E000ED00E06A
:10173C0080B489B000AFF860B9607A60FB6803F0E0
:10174C000703FB61FB69C3F10703042B28BF0423C8
:10175C00BB61FB690433062B02D9FB69033B00E038
:10176C0000237B614FF0FF32BB6902FA03F3DA43CB
:10177C00BB681A407B699A404FF0FF317B6901FAD4
:10178C0003F3D9437B680B40134318462437BD46FB
:10179C0080BC704780B582B000AF78607B68013B3D
:1017AC00B3F1807F01D301230FE00A4A7B68013B30
:1017BC0053600F214FF0FF30FFF790FF054B0022D5
:1017CC009A60044B07221A60002318460837BD465E
:1017DC0080BD00BF10E000E080B582B000AF786043
:1017EC007868FFF72DFF00BF0837BD4680BD80B578
:1017FC0086B000AF0346B9607A60FB7300237B614F
:10180C00FFF742FF78617A68B9687869FFF790FF53
:10181C00024697F90F3011461846FFF75FFF00BFDD
:10182C001837BD4680BD80B582B000AF0346FB7152
:10183C0097F907301846FFF735FF00BF0837BD464C
:10184C0080BD80B582B000AF78607868FFF7A2FFEA
:10185C00034618460837BD4680BD000080B48BB0E7
:10186C0000AF7860396000237B6200233B6248E163
:10187C0001227B6A02FA03F3FB613B681B68FA697D
:10188C001340BB61BA69FB699A4240F037813B68EF
:10189C005B68A34A93425ED0A14A934275D8A14A91
:1018AC00934258D09F4A93426FD89F4A934252D04A
:1018BC009D4A934269D89D4A93424CD09B4A93428D
:1018CC0063D89B4A934246D0994A93425DD8122BD7
:1018DC002AD8122B59D801A252F823F06319000808
:1018EC003D1900084F1900089119000897190008B4
:1018FC0097190008971900089719000897190008FC
:10190C0097190008971900089719000897190008EB
:10191C0097190008971900089719000897190008DB
:10192C004519000859190008824A934213D02CE03B
:10193C003B68DB683B6229E03B68DB6804333B6255
:10194C0024E03B68DB6808333B621FE03B68DB68E4
:10195C000C333B621AE03B689B68002B02D10423DA
:10196C003B6213E03B689B68012B05D108233B626B
:10197C007B68FA691A6109E008233B627B68FA69A3
:10198C005A6103E000233B6200E000BFBB69FF2B00
:10199C0001D87B6801E07B6804337B61BB69FF2B5A
:1019AC0002D87B6A9B0002E07B6A083B9B003B6190
:1019BC007B691A680F213B6901FA03F3DB431A4078
:1019CC00396A3B6901FA03F31A437B691A603B6875
:1019DC005B6803F08053002B00F09080564B9B69A2
:1019EC00554A43F001039361534B9B6903F0010388
:1019FC00BB60BB68514A7B6A9B08023352F82330A8
:101A0C00FB607B6A03F003039B000F2202FA03F3D3
:101A1C00DB43FA681340FB607B68494A93420DD064
:101A2C007B68484A934207D07B68474A934201D16E
:101A3C00022304E0032302E0012300E000237A6A7E
:101A4C0002F0030292009340FA681343FB603B4997
:101A5C007B6A9B080233FA6841F823203B685B6879
:101A6C0003F48013002B06D0384B9A683749BB69B6
:101A7C0013438B6006E0354B9A68BB69DB433349F3
:101A8C0013408B603B685B6803F40013002B06D09B
:101A9C002E4BDA682D49BB691343CB6006E02B4B08
:101AAC00DA68BB69DB4329491340CB603B685B6850
:101ABC0003F40033002B06D0244B5A682349BB692E
:101ACC0013434B6006E0214B5A68BB69DB431F494B
:101ADC0013404B603B685B6803F48033002B06D0EB
:101AEC001A4B1A681949BB6913430B6006E0174B74
:101AFC001A68BB69DB43154913400B607B6A0133E1
:101B0C007B623B681A687B6A22FA03F3002B7FF432
:101B1C00AFAE00BF00BF2C37BD4680BC704700BFC6
:101B2C0000003210000031100000221000002110C3
:101B3C0000001210000011100010024000000140C3
:101B4C0000080140000C014000100140000401405D
:101B5C0080B485B000AF78600B467B807B689A6858
:101B6C007B881340002B02D00123FB7301E0002380
:101B7C00FB73FB7B18461437BD4680BC704780B4A2
:101B8C0083B000AF78600B467B8013467B707B780C
:101B9C00002B03D07A887B681A6103E07B881A04D7
:101BAC007B681A6100BF0C37BD4680BC704780B49F
:101BBC0085B000AF78600B467B807B68DB68FB6090
:101BCC007A88FB6813401A04FB68D9437B880B4066
:101BDC001A437B681A6100BF1437BD4680BC70473E
:101BEC0080B586B000AF78607B68002B01D10123F3
:101BFC006CE27B681B6803F00103002B00F087800C
:101C0C00924B5B6803F00C03042B0CD08F4B5B687E
:101C1C0003F00C03082B12D18C4B5B6803F480335C
:101C2C00B3F5803F0BD1894B1B6803F40033002BB9
:101C3C006CD07B685B68002B68D1012346E27B6823
:101C4C005B68B3F5803F06D1804B1B687F4A43F439
:101C5C00803313602EE07B685B68002B0CD17B4BD0
:101C6C001B687A4A23F480331360784B1B68774ADD
:101C7C0023F4802313601DE07B685B68B3F5A02F11
:101C8C000CD1724B1B68714A43F4802313606F4B69
:101C9C001B686E4A43F4803313600BE06B4B1B687C
:101CAC006A4A23F480331360684B1B68674A23F439
:101CBC00802313607B685B68002B13D0FFF7B6FCA6
:101CCC00386108E0FFF7B2FC02463B69D31A642B7B
:101CDC0001D90323FAE15D4B1B6803F40033002B9D
:101CEC00F0D014E0FFF7A2FC386108E0FFF79EFC8F
:101CFC0002463B69D31A642B01D90323E6E1534B0B
:101D0C001B6803F40033002BF0D100E000BF7B68AC
:101D1C001B6803F00203002B63D04C4B5B6803F091
:101D2C000C03002B0BD0494B5B6803F00C03082B06
:101D3C001CD1464B5B6803F48033002B16D1434B0C
:101D4C001B6803F00203002B05D07B681B69012B79
:101D5C0001D00123BAE13D4B1B6823F0F8027B68EC
:101D6C005B69DB00394913430B603AE07B681B6904
:101D7C00002B20D0364B01221A60FFF757FC38613C
:101D8C0008E0FFF753FC02463B69D31A022B01D93A
:101D9C0003239BE12D4B1B6803F00203002BF0D0B7
:101DAC002A4B1B6823F0F8027B685B69DB00274930
:101DBC0013430B6015E0264B00221A60FFF736FC2C
:101DCC00386108E0FFF732FC02463B69D31A022B5C
:101DDC0001D903237AE11D4B1B6803F00203002B8E
:101DEC00F0D17B681B6803F00803002B3AD07B68AA
:101DFC009B69002B19D0174B01221A60FFF716FCB8
:101E0C00386108E0FFF712FC02463B69D31A022B3B
:101E1C0001D903235AE10D4B5B6A03F00203002B3B
:101E2C00F0D0012000F09AFA1CE00A4B00221A6054
:101E3C00FFF7FCFB38610FE0FFF7F8FB02463B694C
:101E4C00D31A022B08D9032340E100BF0010024033
:101E5C0000004242800442429E4B5B6A03F0020344
:101E6C00002BE9D17B681B6803F00403002B00F006
:101E7C00A6800023FB75974BDB6903F08053002B86
:101E8C000DD1944BDB69934A43F08053D361914B52
:101E9C00DB6903F08053BB60BB680123FB758E4B81
:101EAC001B6803F48073002B18D18B4B1B688A4A78
:101EBC0043F480731360FFF7B9FB386108E0FFF758
:101ECC00B5FB02463B69D31A642B01D90323FDE011
:101EDC00814B1B6803F48073002BF0D07B68DB68AC
:101EEC00012B06D17B4B1B6A7A4A43F00103136228
:101EFC002DE07B68DB68002B0CD1764B1B6A754A96
:101F0C0023F001031362734B1B6A724A23F0040320
:101F1C0013621CE07B68DB68052B0CD16D4B1B6AD4
:101F2C006C4A43F0040313626A4B1B6A694A43F020
:101F3C00010313620BE0674B1B6A664A23F0010333
:101F4C001362644B1B6A634A23F0040313627B68BD
:101F5C00DB68002B15D0FFF769FB38610AE0FFF74F
:101F6C0065FB02463B69D31A41F28832934201D990
:101F7C000323ABE0574B1B6A03F00203002BEED09C
:101F8C0014E0FFF753FB38610AE0FFF74FFB024602
:101F9C003B69D31A41F28832934201D9032395E06D
:101FAC004C4B1B6A03F00203002BEED1FB7D012B83
:101FBC0005D1484BDB69474A23F08053D3617B68DA
:101FCC00DB69002B00F08180424B5B6803F00C0353
:101FDC00082B61D07B68DB69022B46D13F4B00227A
:101FEC001A60FFF723FB386108E0FFF71FFB02467E
:101FFC003B69D31A022B01D9032367E0354B1B68CD
:10200C0003F00073002BF0D17B681B6AB3F5803FA3
:10201C0008D1304B5B6823F400327B689B682D49F8
:10202C0013434B602B4B5B6823F474127B68196A67
:10203C007B685B6A0B43274913434B60274B012298
:10204C001A60FFF7F3FA386108E0FFF7EFFA02467F
:10205C003B69D31A022B01D9032337E01D4B1B68B4
:10206C0003F00073002BF0D02FE01C4B00221A6001
:10207C00FFF7DCFA386108E0FFF7D8FA02463B6953
:10208C00D31A022B01D9032320E0124B1B6803F057
:10209C000073002BF0D118E07B68DB69012B01D1B8
:1020AC00012313E00B4B5B68FB60FB6803F480328D
:1020BC007B681B6A9A4206D1FB6803F470127B683A
:1020CC005B6A9A4201D0012300E0002318461837BE
:1020DC00BD4680BD001002400070004060004242CE
:1020EC0080B584B000AF786039607B68002B01D17B
:1020FC000123D0E06A4B1B6803F007033A689A424D
:10210C0010D9674B1B6823F0070265493B681343E2
:10211C000B60634B1B6803F007033A689A4201D0CB
:10212C000123B8E07B681B6803F00203002B20D06E
:10213C007B681B6803F00403002B05D0594B5B68CC
:10214C00584A43F4E06353607B681B6803F0080350
:10215C00002B05D0534B5B68524A43F460535360D9
:10216C00504B5B6823F0F0027B689B684D4913432E
:10217C004B607B681B6803F00103002B40D07B682D
:10218C005B68012B07D1474B1B6803F40033002B12
:10219C0015D101237FE07B685B68022B07D1414B93
:1021AC001B6803F00073002B09D1012373E03D4B36
:1021BC001B6803F00203002B01D101236BE0394BA8
:1021CC005B6823F003027B685B68364913434B6002
:1021DC00FFF72CFAF8600AE0FFF728FA0246FB68D2
:1021EC00D31A41F28832934201D9032353E02D4B89
:1021FC005B6803F00C027B685B689B009A42EBD136
:10220C00274B1B6803F007033A689A4210D2244B01
:10221C001B6823F0070222493B6813430B60204BD9
:10222C001B6803F007033A689A4201D0012332E09D
:10223C007B681B6803F00403002B08D0194B5B6808
:10224C0023F4E0627B68DB68164913434B607B68C0
:10225C001B6803F00803002B09D0124B5B6823F4B6
:10226C0060527B681B69DB000E4913434B6000F026
:10227C0021F802460B4B5B681B0903F00F030A495C
:10228C00CB5C22FA03F3094A1360094B1B6818460E
:10229C00FFF78AF9002318461037BD4680BD00BFF2
:1022AC000020024000100240CC2B000888000020C7
:1022BC008C00002080B487B000AF0023FB600023AB
:1022CC00BB6000237B6100237B6000233B611E4BC2
:1022DC005B68FB60FB6803F00C03042B02D0082B3B
:1022EC0003D027E0194B3B6127E0FB689B0C03F004
:1022FC000F03174AD35C7B60FB6803F48033002B1D
:10230C0010D0114B5B685B0C03F00103114AD35CDA
:10231C00BB607B680D4A02FB03F2BB68B2FBF3F3B4
:10232C007B6104E07B680C4A02FB03F37B617B69F5
:10233C003B6102E0054B3B6100BF3B6918461C3713
:10234C00BD4680BC704700BF0010024000127A00EE
:10235C00DC2B0008EC2B000800093D0080B485B094
:10236C0000AF78600A4B1B680A4AA2FB03235B0A86
:10237C007A6802FB03F3FB6000BFFB685A1EFA602D
:10238C00002BF9D100BF00BF1437BD4680BC70478D
:10239C0088000020D34D621080B582B000AF786009
:1023AC007B68002B01D1012341E07B6893F83D3021
:1023BC00DBB2002B06D17B68002283F83C207868C6
:1023CC00FFF75AF87B68022283F83D207B681A6875
:1023DC007B6804331946104600F056FA7B680122DC
:1023EC0083F846207B68012283F83E207B6801221B
:1023FC0083F83F207B68012283F840207B68012210
:10240C0083F841207B68012283F842207B680122FB
:10241C0083F843207B68012283F844207B680122E7
:10242C0083F845207B68012283F83D200023184661
:10243C000837BD4680BD000080B485B000AF786021
:10244C007B6893F83D30DBB2012B01D0012335E0E2
:10245C007B68022283F83D207B681B68DA687B6806
:10246C001B6842F00102DA607B681B68164A9342D3
:10247C0009D07B681B68B3F1804F04D07B681B6864
:10248C00124A934211D17B681B689B6803F00703C7
:10249C00FB60FB68062B10D07B681B681A687B6896
:1024AC001B6842F001021A6007E07B681B681A681F
:1024BC007B681B6842F001021A600023184614372F
:1024CC00BD4680BC704700BF002C0140000400409A
:1024DC0080B584B000AF78607B681B68DB68FB60FC
:1024EC007B681B681B69BB60BB6803F00203002B95
:1024FC0020D0FB6803F00203002B1BD07B681B6809
:10250C006FF002021A617B6801221A777B681B68E4
:10251C009B6903F00303002B03D0786800F098F953
:10252C0005E0786800F08BF9786800F09AF97B6820
:10253C0000221A77BB6803F00403002B20D0FB6841
:10254C0003F00403002B1BD07B681B686FF00402A4
:10255C001A617B6802221A777B681B689B6903F4FB
:10256C004073002B03D0786800F072F905E07868AE
:10257C0000F065F9786800F074F97B6800221A772E
:10258C00BB6803F00803002B20D0FB6803F00803A2
:10259C00002B1BD07B681B686FF008021A617B68EC
:1025AC0004221A777B681B68DB6903F00303002B9A
:1025BC0003D0786800F04CF905E0786800F03FF93A
:1025CC00786800F04EF97B6800221A77BB6803F03C
:1025DC001003002B20D0FB6803F01003002B1BD042
:1025EC007B681B686FF010021A617B6808221A77EF
:1025FC007B681B68DB6903F44073002B03D078689D
:10260C0000F026F905E0786800F019F9786800F018
:10261C0028F97B6800221A77BB6803F00103002BB2
:10262C000CD0FB6803F00103002B07D07B681B6800
:10263C006FF001021A617868FDF7DCFFBB6803F0EC
:10264C008003002B0CD0FB6803F08003002B07D019
:10265C007B681B686FF080021A61786800F06FFA73
:10266C00BB6803F04003002B0CD0FB6803F0400365
:10267C00002B07D07B681B686FF040021A617868EA
:10268C0000F0F8F8BB6803F02003002B0CD0FB68BB
:10269C0003F02003002B07D07B681B686FF020022F
:1026AC001A61786800F042FA00BF1037BD4680BD51
:1026BC0080B584B000AF786039600023FB737B6811
:1026CC0093F83C30012B01D10223B4E07B6801224A
:1026DC0083F83C207B68022283F83D207B681B68D2
:1026EC009B68BB60BB6823F07703BB60BB6823F4BB
:1026FC007F43BB607B681B68BA689A603B681B6849
:10270C00B3F5005F3ED0B3F5005F00F28780B3F500
:10271C00805F00F08680B3F5805F7FD8702B1AD075
:10272C00702B7BD8602B50D0602B77D8502B3CD0A3
:10273C00502B73D8402B58D0402B6FD8302B64D0F3
:10274C00302B6BD8202B60D0202B67D8002B5CD083
:10275C00102B5AD062E07B6818683B6899683B681C
:10276C005A683B68DB6800F06AF97B681B689B68F9
:10277C00BB60BB6843F07703BB607B681B68BA68BF
:10278C009A604FE07B6818683B6899683B685A68A8
:10279C003B68DB6800F053F97B681B689A687B68C0
:1027AC001B6842F480429A603CE07B6818683B6886
:1027BC0059683B68DB681A4600F0CAF87B681B68EE
:1027CC005021184600F021F92CE07B6818683B6812
:1027DC0059683B68DB681A4600F0E8F87B681B68B0
:1027EC006021184600F011F91CE07B6818683B6802
:1027FC0059683B68DB681A4600F0AAF87B681B68CE
:10280C004021184600F001F90CE07B681A683B681F
:10281C001B681946104600F0F8F803E00123FB731F
:10282C0000E000BF7B68012283F83D207B6800221A
:10283C0083F83C20FB7B18461037BD4680BD80B426
:10284C0083B000AF786000BF0C37BD4680BC7047CA
:10285C0080B483B000AF786000BF0C37BD4680BC3D
:10286C00704780B483B000AF786000BF0C37BD46B2
:10287C0080BC704780B483B000AF786000BF0C3769
:10288C00BD4680BC7047000080B485B000AF786056
:10289C0039607B681B68FB607B682B4A934207D0CE
:1028AC007B68B3F1804F03D07B68284A934208D1F0
:1028BC00FB6823F07003FB603B685B68FA681343AA
:1028CC00FB607B68204A934207D07B68B3F1804F52
:1028DC0003D07B681D4A934208D1FB6823F44073F4
:1028EC00FB603B68DB68FA681343FB60FB6823F012
:1028FC0080023B685B691343FB607B68FA681A6073
:10290C003B689A687B68DA623B681A687B689A62F3
:10291C007B680D4A934203D13B681A697B681A6342
:10292C007B6801225A617B681B6903F00103002B51
:10293C0005D07B681B6923F001027B681A6100BF1C
:10294C001437BD4680BC7047002C01400004004089
:10295C0080B487B000AFF860B9607A60FB681B6A1E
:10296C007B61FB681B6A23F00102FB681A62FB683F
:10297C009B693B613B6923F0F0033B617B681B0166
:10298C003A6913433B617B6923F00A037B617A69E3
:10299C00BB6813437B61FB683A699A61FB687A698F
:1029AC001A6200BF1C37BD4680BC704780B487B02C
:1029BC0000AFF860B9607A60FB681B6A7B61FB68EA
:1029CC001B6A23F01002FB681A62FB689B693B616F
:1029DC003B6923F470433B617B681B033A691343E7
:1029EC003B617B6923F0A0037B61BB681B017A69A7
:1029FC0013437B61FB683A699A61FB687A691A62D6
:102A0C0000BF1C37BD4680BC704780B485B000AF9A
:102A1C00786039607B689B68FB60FB6823F070030F
:102A2C00FB603A68FB68134343F00703FB607B6869
:102A3C00FA689A6000BF1437BD4680BC704780B4FA
:102A4C0087B000AFF860B9607A603B60FB689B6848
:102A5C007B617B6923F47F437B613B681A027B6853
:102A6C001A43BB6813437A6913437B61FB687A6929
:102A7C009A6000BF1C37BD4680BC704780B485B0DF
:102A8C0000AF786039607B6893F83C30012B01D142
:102A9C00022341E07B68012283F83C207B68022200
:102AAC0083F83D207B681B685B68FB607B681B6858
:102ABC009B68BB60FB6823F07003FB603B681B6882
:102ACC00FA681343FB607B681B68FA685A607B6882
:102ADC001B68144A934209D07B681B68B3F1804F82
:102AEC0004D07B681B68104A93420CD1BB6823F05E
:102AFC008003BB603B685B68BA681343BB607B6850
:102B0C001B68BA689A607B68012283F83D207B6859
:102B1C00002283F83C20002318461437BD4680BCA5
:102B2C00704700BF002C01400004004080B483B00B
:102B3C0000AF786000BF0C37BD4680BC704780B4D6
:102B4C0083B000AF786000BF0C37BD4680BC7047C7
:102B5C0070B500260C4D0D4C641BA410A64209D177
:102B6C0000F022F800260A4D0A4C641BA410A64261
:102B7C0005D170BD55F8043B98470136EEE755F882
:102B8C00043B98470136F2E7F02B0008F02B0008C5
:102B9C00F02B0008F42B000803460244934200D1AA
:102BAC00704703F8011BF9E7F8B500BFF8BC08BC87
:102BBC009E467047F8B500BFF8BC08BC9E467047EF
:102BCC0000000000000000000102030406070809D1
:102BDC0002030405060708090A0B0C0D0E0F101052
:042BEC0001020000E2
:042BF00031010008A7
:042BF4000D010008C7
:102BF80001000000000000000000000001000000CB
:102C080000000000000000000100000000000000BB
:102C180000000000010000000000000000000000AB
:102C2800C800000000000000000000000010014083
:102C38000010014000100140002000400008000082
:102C480088130000B80B0000D00700000500000042
:102C5800030000000200000010270000F40100003B
:102C6800F4010000F4010000C800000001000000A9
:102C7800010000000100000000127A0010000000AE
:042C88000100000047
:040000050800153D9D
:00000001FF
